8=FIX.4.4|9=56|35=D|49=SENDER|56=TARGET|34=1|10=123|
8=FIX.4.4|9=56|35=D|49=SENDER|56=TARGET|34=1|10=123|
8=FIX.4.4|9=56|35=D|49=SENDER|56=TARGET|34=1|10=123|
8=FIX.4.4|9=56|35=D|49=SENDER|56=TARGET|34=1|10=123|
8=FIX.4.4|9=56|35=D|49=SENDER|56=TARGET|34=1|10=123|
8=FIX.4.4|9=56|35=D|49=SENDER|56=TARGET|34=1|10=123|
8=FIX.4.4|9=56|35=D|49=SENDER|56=TARGET|34=1|10=123|
8=FIX.4.4|9=56|35=D|49=SENDER|56=TARGET|34=1|10=123|
8=FIX.4.4|9=56|35=D|49=SENDER|56=TARGET|34=1|10=123|
8=FIX.4.4|9=56|35=D|49=SENDER|56=TARGET|34=1|10=123|
8=FIX.4.4|9=56|35=D|49=SENDER|56=TARGET|34=1|10=123|
8=FIX.4.4|9=56|35=D|49=SENDER|56=TARGET|34=1|10=123|
8=FIX.4.4|9=56|35=D|49=SENDER|56=TARGET|34=1|10=123|
8=FIX.4.4|9=56|35=D|49=SENDER|56=TARGET|34=1|10=123|
8=FIX.4.4|9=56|35=D|49=SENDER|56=TARGET|34=1|10=123|
8=FIX.4.4|9=56|35=D|49=SENDER|56=TARGET|34=1|10=123|
8=FIX.4.4|9=56|35=D|49=SENDER|56=TARGET|34=1|10=123|
8=FIX.4.4|9=56|35=D|49=SENDER|56=TARGET|34=1|10=123|
8=FIX.4.4|9=56|35=D|49=SENDER|56=TARGET|34=1|10=123|
8=FIX.4.4|9=56|35=D|49=SENDER|56=TARGET|34=1|10=123|
8=FIX.4.4|9=56|35=D|49=SENDER|56=TARGET|34=1|10=123|
8=FIX.4.4|9=56|35=D|49=SENDER|56=TARGET|34=1|10=123|
8=FIX.4.4|9=56|35=D|49=SENDER|56=TARGET|34=1|10=123|
8=FIX.4.4|9=56|35=D|49=SENDER|56=TARGET|34=1|10=123|
8=FIX.4.4|9=56|35=D|49=SENDER|56=TARGET|34=1|10=123|
8=FIX.4.4|9=56|35=D|49=SENDER|56=TARGET|34=1|10=123|
8=FIX.4.4|9=56|35=D|49=SENDER|56=TARGET|34=1|10=123|
8=FIX.4.4|9=56|35=D|49=SENDER|56=TARGET|34=1|10=123|
8=FIX.4.4|9=56|35=D|49=SENDER|56=TARGET|34=1|10=123|
8=FIX.4.4|9=56|35=D|49=SENDER|56=TARGET|34=1|10=123|
8=FIX.4.4|9=56|35=D|49=SENDER|56=TARGET|34=1|10=123|
8=FIX.4.4|9=56|35=D|49=SENDER|56=TARGET|34=1|10=123|
8=FIX.4.4|9=56|35=D|49=SENDER|56=TARGET|34=1|10=123|
8=FIX.4.4|9=56|35=D|49=SENDER|56=TARGET|34=1|10=123|
8=FIX.4.4|9=56|35=D|49=SENDER|56=TARGET|34=1|10=123|
8=FIX.4.4|9=56|35=D|49=SENDER|56=TARGET|34=1|10=123|
8=FIX.4.4|9=56|35=D|49=SENDER|56=TARGET|34=1|10=123|
8=FIX.4.4|9=56|35=D|49=SENDER|56=TARGET|34=1|10=123|
8=FIX.4.4|9=56|35=D|49=SENDER|56=TARGET|34=1|10=123|
8=FIX.4.4|9=56|35=D|49=SENDER|56=TARGET|34=1|10=123|
8=FIX.4.4|9=56|35=D|49=SENDER|56=TARGET|34=1|10=123|
8=FIX.4.4|9=56|35=D|49=SENDER|56=TARGET|34=1|10=123|
8=FIX.4.4|9=56|35=D|49=SENDER|56=TARGET|34=1|10=123|
8=FIX.4.4|9=56|35=D|49=SENDER|56=TARGET|34=1|10=123|
8=FIX.4.4|9=56|35=D|49=SENDER|56=TARGET|34=1|10=123|
8=FIX.4.4|9=56|35=D|49=SENDER|56=TARGET|34=1|10=123|
8=FIX.4.4|9=56|35=D|49=SENDER|56=TARGET|34=1|10=123|
8=FIX.4.4|9=56|35=D|49=SENDER|56=TARGET|34=1|10=123|
8=FIX.4.4|9=56|35=D|49=SENDER|56=TARGET|34=1|10=123|
8=FIX.4.4|9=56|35=D|49=SENDER|56=TARGET|34=1|10=123|
8=FIX.4.4|9=56|35=D|49=SENDER|56=TARGET|34=1|10=123|
8=FIX.4.4|9=56|35=D|49=SENDER|56=TARGET|34=1|10=123|
8=FIX.4.4|9=56|35=D|49=SENDER|56=TARGET|34=1|10=123|
8=FIX.4.4|9=56|35=D|49=SENDER|56=TARGET|34=1|10=123|
8=FIX.4.4|9=56|35=D|49=SENDER|56=TARGET|34=1|10=123|
8=FIX.4.4|9=56|35=D|49=SENDER|56=TARGET|34=1|10=123|
8=FIX.4.4|9=56|35=D|49=SENDER|56=TARGET|34=1|10=123|
8=FIX.4.4|9=56|35=D|49=SENDER|56=TARGET|34=1|10=123|
8=FIX.4.4|9=56|35=D|49=SENDER|56=TARGET|34=1|10=123|
8=FIX.4.4|9=56|35=D|49=SENDER|56=TARGET|34=1|10=123|
8=FIX.4.4|9=56|35=D|49=SENDER|56=TARGET|34=1|10=123|
8=FIX.4.4|9=56|35=D|49=SENDER|56=TARGET|34=1|10=123|
8=FIX.4.4|9=56|35=D|49=SENDER|56=TARGET|34=1|10=123|
8=FIX.4.4|9=56|35=D|49=SENDER|56=TARGET|34=1|10=123|
8=FIX.4.4|9=56|35=D|49=SENDER|56=TARGET|34=1|10=123|
8=FIX.4.4|9=56|35=D|49=SENDER|56=TARGET|34=1|10=123|
8=FIX.4.4|9=56|35=D|49=SENDER|56=TARGET|34=1|10=123|
8=FIX.4.4|9=56|35=D|49=SENDER|56=TARGET|34=1|10=123|
8=FIX.4.4|9=56|35=D|49=SENDER|56=TARGET|34=1|10=123|
8=FIX.4.4|9=56|35=D|49=SENDER|56=TARGET|34=1|10=123|
8=FIX.4.4|9=56|35=D|49=SENDER|56=TARGET|34=1|10=123|
8=FIX.4.4|9=56|35=D|49=SENDER|56=TARGET|34=1|10=123|
8=FIX.4.4|9=56|35=D|49=SENDER|56=TARGET|34=1|10=123|
8=FIX.4.4|9=56|35=D|49=SENDER|56=TARGET|34=1|10=123|
8=FIX.4.4|9=56|35=D|49=SENDER|56=TARGET|34=1|10=123|
8=FIX.4.4|9=56|35=D|49=SENDER|56=TARGET|34=1|10=123|
8=FIX.4.4|9=56|35=D|49=SENDER|56=TARGET|34=1|10=123|
8=FIX.4.4|9=56|35=D|49=SENDER|56=TARGET|34=1|10=123|
8=FIX.4.4|9=56|35=D|49=SENDER|56=TARGET|34=1|10=123|
8=FIX.4.4|9=56|35=D|49=SENDER|56=TARGET|34=1|10=123|
8=FIX.4.4|9=56|35=D|49=SENDER|56=TARGET|34=1|10=123|
8=FIX.4.4|9=56|35=D|49=SENDER|56=TARGET|34=1|10=123|
8=FIX.4.4|9=56|35=D|49=SENDER|56=TARGET|34=1|10=123|
8=FIX.4.4|9=56|35=D|49=SENDER|56=TARGET|34=1|10=123|
8=FIX.4.4|9=56|35=D|49=SENDER|56=TARGET|34=1|10=123|
8=FIX.4.4|9=56|35=D|49=SENDER|56=TARGET|34=1|10=123|
8=FIX.4.4|9=56|35=D|49=SENDER|56=TARGET|34=1|10=123|
8=FIX.4.4|9=56|35=D|49=SENDER|56=TARGET|34=1|10=123|
8=FIX.4.4|9=56|35=D|49=SENDER|56=TARGET|34=1|10=123|
8=FIX.4.4|9=56|35=D|49=SENDER|56=TARGET|34=1|10=123|
8=FIX.4.4|9=56|35=D|49=SENDER|56=TARGET|34=1|10=123|
8=FIX.4.4|9=56|35=D|49=SENDER|56=TARGET|34=1|10=123|
8=FIX.4.4|9=56|35=D|49=SENDER|56=TARGET|34=1|10=123|
8=FIX.4.4|9=56|35=D|49=SENDER|56=TARGET|34=1|10=123|
8=FIX.4.4|9=56|35=D|49=SENDER|56=TARGET|34=1|10=123|
8=FIX.4.4|9=56|35=D|49=SENDER|56=TARGET|34=1|10=123|
8=FIX.4.4|9=56|35=D|49=SENDER|56=TARGET|34=1|10=123|
8=FIX.4.4|9=56|35=D|49=SENDER|56=TARGET|34=1|10=123|
8=FIX.4.4|9=56|35=D|49=SENDER|56=TARGET|34=1|10=123|
8=FIX.4.4|9=56|35=D|49=SENDER|56=TARGET|34=1|10=123|
8=FIX.4.4|9=56|35=D|49=SENDER|56=TARGET|34=1|10=123|
8=FIX.4.4|9=56|35=D|49=SENDER|56=TARGET|34=1|10=123|
8=FIX.4.4|9=56|35=D|49=SENDER|56=TARGET|34=1|10=123|
8=FIX.4.4|9=56|35=D|49=SENDER|56=TARGET|34=1|10=123|
8=FIX.4.4|9=56|35=D|49=SENDER|56=TARGET|34=1|10=123|
8=FIX.4.4|9=56|35=D|49=SENDER|56=TARGET|34=1|10=123|
8=FIX.4.4|9=56|35=D|49=SENDER|56=TARGET|34=1|10=123|
8=FIX.4.4|9=56|35=D|49=SENDER|56=TARGET|34=1|10=123|
8=FIX.4.4|9=56|35=D|49=SENDER|56=TARGET|34=1|10=123|
8=FIX.4.4|9=56|35=D|49=SENDER|56=TARGET|34=1|10=123|
8=FIX.4.4|9=56|35=D|49=SENDER|56=TARGET|34=1|10=123|
8=FIX.4.4|9=56|35=D|49=SENDER|56=TARGET|34=1|10=123|
8=FIX.4.4|9=56|35=D|49=SENDER|56=TARGET|34=1|10=123|
8=FIX.4.4|9=56|35=D|49=SENDER|56=TARGET|34=1|10=123|
8=FIX.4.4|9=56|35=D|49=SENDER|56=TARGET|34=1|10=123|
8=FIX.4.4|9=56|35=D|49=SENDER|56=TARGET|34=1|10=123|
8=FIX.4.4|9=56|35=D|49=SENDER|56=TARGET|34=1|10=123|
8=FIX.4.4|9=56|35=D|49=SENDER|56=TARGET|34=1|10=123|
8=FIX.4.4|9=56|35=D|49=SENDER|56=TARGET|34=1|10=123|
8=FIX.4.4|9=56|35=D|49=SENDER|56=TARGET|34=1|10=123|
8=FIX.4.4|9=56|35=D|49=SENDER|56=TARGET|34=1|10=123|
8=FIX.4.4|9=56|35=D|49=SENDER|56=TARGET|34=1|10=123|
8=FIX.4.4|9=56|35=D|49=SENDER|56=TARGET|34=1|10=123|
8=FIX.4.4|9=56|35=D|49=SENDER|56=TARGET|34=1|10=123|
8=FIX.4.4|9=56|35=D|49=SENDER|56=TARGET|34=1|10=123|
8=FIX.4.4|9=56|35=D|49=SENDER|56=TARGET|34=1|10=123|
8=FIX.4.4|9=56|35=D|49=SENDER|56=TARGET|34=1|10=123|
8=FIX.4.4|9=56|35=D|49=SENDER|56=TARGET|34=1|10=123|
8=FIX.4.4|9=56|35=D|49=SENDER|56=TARGET|34=1|10=123|
8=FIX.4.4|9=56|35=D|49=SENDER|56=TARGET|34=1|10=123|
8=FIX.4.4|9=56|35=D|49=SENDER|56=TARGET|34=1|10=123|
8=FIX.4.4|9=56|35=D|49=SENDER|56=TARGET|34=1|10=123|
8=FIX.4.4|9=56|35=D|49=SENDER|56=TARGET|34=1|10=123|
8=FIX.4.4|9=56|35=D|49=SENDER|56=TARGET|34=1|10=123|
8=FIX.4.4|9=56|35=D|49=SENDER|56=TARGET|34=1|10=123|
8=FIX.4.4|9=56|35=D|49=SENDER|56=TARGET|34=1|10=123|
8=FIX.4.4|9=56|35=D|49=SENDER|56=TARGET|34=1|10=123|
8=FIX.4.4|9=56|35=D|49=SENDER|56=TARGET|34=1|10=123|
8=FIX.4.4|9=56|35=D|49=SENDER|56=TARGET|34=1|10=123|
8=FIX.4.4|9=56|35=D|49=SENDER|56=TARGET|34=1|10=123|
8=FIX.4.4|9=56|35=D|49=SENDER|56=TARGET|34=1|10=123|
8=FIX.4.4|9=56|35=D|49=SENDER|56=TARGET|34=1|10=123|
8=FIX.4.4|9=56|35=D|49=SENDER|56=TARGET|34=1|10=123|
8=FIX.4.4|9=56|35=D|49=SENDER|56=TARGET|34=1|10=123|
8=FIX.4.4|9=56|35=D|49=SENDER|56=TARGET|34=1|10=123|
8=FIX.4.4|9=56|35=D|49=SENDER|56=TARGET|34=1|10=123|
8=FIX.4.4|9=56|35=D|49=SENDER|56=TARGET|34=1|10=123|
8=FIX.4.4|9=56|35=D|49=SENDER|56=TARGET|34=1|10=123|
8=FIX.4.4|9=56|35=D|49=SENDER|56=TARGET|34=1|10=123|
8=FIX.4.4|9=56|35=D|49=SENDER|56=TARGET|34=1|10=123|
8=FIX.4.4|9=56|35=D|49=SENDER|56=TARGET|34=1|10=123|
8=FIX.4.4|9=56|35=D|49=SENDER|56=TARGET|34=1|10=123|
8=FIX.4.4|9=56|35=D|49=SENDER|56=TARGET|34=1|10=123|
8=FIX.4.4|9=56|35=D|49=SENDER|56=TARGET|34=1|10=123|
8=FIX.4.4|9=56|35=D|49=SENDER|56=TARGET|34=1|10=123|
8=FIX.4.4|9=56|35=D|49=SENDER|56=TARGET|34=1|10=123|
8=FIX.4.4|9=56|35=D|49=SENDER|56=TARGET|34=1|10=123|
8=FIX.4.4|9=56|35=D|49=SENDER|56=TARGET|34=1|10=123|
8=FIX.4.4|9=56|35=D|49=SENDER|56=TARGET|34=1|10=123|
8=FIX.4.4|9=56|35=D|49=SENDER|56=TARGET|34=1|10=123|
8=FIX.4.4|9=56|35=D|49=SENDER|56=TARGET|34=1|10=123|
8=FIX.4.4|9=56|35=D|49=SENDER|56=TARGET|34=1|10=123|
8=FIX.4.4|9=56|35=D|49=SENDER|56=TARGET|34=1|10=123|
8=FIX.4.4|9=56|35=D|49=SENDER|56=TARGET|34=1|10=123|
8=FIX.4.4|9=56|35=D|49=SENDER|56=TARGET|34=1|10=123|
8=FIX.4.4|9=56|35=D|49=SENDER|56=TARGET|34=1|10=123|
8=FIX.4.4|9=56|35=D|49=SENDER|56=TARGET|34=1|10=123|
8=FIX.4.4|9=56|35=D|49=SENDER|56=TARGET|34=1|10=123|
8=FIX.4.4|9=56|35=D|49=SENDER|56=TARGET|34=1|10=123|
8=FIX.4.4|9=56|35=D|49=SENDER|56=TARGET|34=1|10=123|
8=FIX.4.4|9=56|35=D|49=SENDER|56=TARGET|34=1|10=123|
8=FIX.4.4|9=56|35=D|49=SENDER|56=TARGET|34=1|10=123|
8=FIX.4.4|9=56|35=D|49=SENDER|56=TARGET|34=1|10=123|
8=FIX.4.4|9=56|35=D|49=SENDER|56=TARGET|34=1|10=123|
8=FIX.4.4|9=56|35=D|49=SENDER|56=TARGET|34=1|10=123|
8=FIX.4.4|9=56|35=D|49=SENDER|56=TARGET|34=1|10=123|
8=FIX.4.4|9=56|35=D|49=SENDER|56=TARGET|34=1|10=123|
8=FIX.4.4|9=56|35=D|49=SENDER|56=TARGET|34=1|10=123|
8=FIX.4.4|9=56|35=D|49=SENDER|56=TARGET|34=1|10=123|
8=FIX.4.4|9=56|35=D|49=SENDER|56=TARGET|34=1|10=123|
8=FIX.4.4|9=56|35=D|49=SENDER|56=TARGET|34=1|10=123|
8=FIX.4.4|9=56|35=D|49=SENDER|56=TARGET|34=1|10=123|
8=FIX.4.4|9=56|35=D|49=SENDER|56=TARGET|34=1|10=123|
8=FIX.4.4|9=56|35=D|49=SENDER|56=TARGET|34=1|10=123|
8=FIX.4.4|9=56|35=D|49=SENDER|56=TARGET|34=1|10=123|
8=FIX.4.4|9=56|35=D|49=SENDER|56=TARGET|34=1|10=123|
8=FIX.4.4|9=56|35=D|49=SENDER|56=TARGET|34=1|10=123|
8=FIX.4.4|9=56|35=D|49=SENDER|56=TARGET|34=1|10=123|
8=FIX.4.4|9=56|35=D|49=SENDER|56=TARGET|34=1|10=123|
8=FIX.4.4|9=56|35=D|49=SENDER|56=TARGET|34=1|10=123|
8=FIX.4.4|9=56|35=D|49=SENDER|56=TARGET|34=1|10=123|
8=FIX.4.4|9=56|35=D|49=SENDER|56=TARGET|34=1|10=123|
8=FIX.4.4|9=56|35=D|49=SENDER|56=TARGET|34=1|10=123|
8=FIX.4.4|9=56|35=D|49=SENDER|56=TARGET|34=1|10=123|
8=FIX.4.4|9=56|35=D|49=SENDER|56=TARGET|34=1|10=123|
8=FIX.4.4|9=56|35=D|49=SENDER|56=TARGET|34=1|10=123|
8=FIX.4.4|9=56|35=D|49=SENDER|56=TARGET|34=1|10=123|
8=FIX.4.4|9=56|35=D|49=SENDER|56=TARGET|34=1|10=123|
8=FIX.4.4|9=56|35=D|49=SENDER|56=TARGET|34=1|10=123|
8=FIX.4.4|9=56|35=D|49=SENDER|56=TARGET|34=1|10=123|
8=FIX.4.4|9=56|35=D|49=SENDER|56=TARGET|34=1|10=123|
8=FIX.4.4|9=56|35=D|49=SENDER|56=TARGET|34=1|10=123|
8=FIX.4.4|9=56|35=D|49=SENDER|56=TARGET|34=1|10=123|
8=FIX.4.4|9=56|35=D|49=SENDER|56=TARGET|34=1|10=123|
8=FIX.4.4|9=56|35=D|49=SENDER|56=TARGET|34=1|10=123|
8=FIX.4.4|9=56|35=D|49=SENDER|56=TARGET|34=1|10=123|
8=FIX.4.4|9=56|35=D|49=SENDER|56=TARGET|34=1|10=123|
8=FIX.4.4|9=56|35=D|49=SENDER|56=TARGET|34=1|10=123|
8=FIX.4.4|9=56|35=D|49=SENDER|56=TARGET|34=1|10=123|
8=FIX.4.4|9=56|35=D|49=SENDER|56=TARGET|34=1|10=123|
8=FIX.4.4|9=56|35=D|49=SENDER|56=TARGET|34=1|10=123|
8=FIX.4.4|9=56|35=D|49=SENDER|56=TARGET|34=1|10=123|
8=FIX.4.4|9=56|35=D|49=SENDER|56=TARGET|34=1|10=123|
8=FIX.4.4|9=56|35=D|49=SENDER|56=TARGET|34=1|10=123|
8=FIX.4.4|9=56|35=D|49=SENDER|56=TARGET|34=1|10=123|
8=FIX.4.4|9=56|35=D|49=SENDER|56=TARGET|34=1|10=123|
8=FIX.4.4|9=56|35=D|49=SENDER|56=TARGET|34=1|10=123|
8=FIX.4.4|9=56|35=D|49=SENDER|56=TARGET|34=1|10=123|
8=FIX.4.4|9=56|35=D|49=SENDER|56=TARGET|34=1|10=123|
8=FIX.4.4|9=56|35=D|49=SENDER|56=TARGET|34=1|10=123|
8=FIX.4.4|9=56|35=D|49=SENDER|56=TARGET|34=1|10=123|
8=FIX.4.4|9=56|35=D|49=SENDER|56=TARGET|34=1|10=123|
8=FIX.4.4|9=56|35=D|49=SENDER|56=TARGET|34=1|10=123|
8=FIX.4.4|9=56|35=D|49=SENDER|56=TARGET|34=1|10=123|
8=FIX.4.4|9=56|35=D|49=SENDER|56=TARGET|34=1|10=123|
8=FIX.4.4|9=56|35=D|49=SENDER|56=TARGET|34=1|10=123|
8=FIX.4.4|9=56|35=D|49=SENDER|56=TARGET|34=1|10=123|
8=FIX.4.4|9=56|35=D|49=SENDER|56=TARGET|34=1|10=123|
8=FIX.4.4|9=56|35=D|49=SENDER|56=TARGET|34=1|10=123|
8=FIX.4.4|9=56|35=D|49=SENDER|56=TARGET|34=1|10=123|
8=FIX.4.4|9=56|35=D|49=SENDER|56=TARGET|34=1|10=123|
8=FIX.4.4|9=56|35=D|49=SENDER|56=TARGET|34=1|10=123|
8=FIX.4.4|9=56|35=D|49=SENDER|56=TARGET|34=1|10=123|
8=FIX.4.4|9=56|35=D|49=SENDER|56=TARGET|34=1|10=123|
8=FIX.4.4|9=56|35=D|49=SENDER|56=TARGET|34=1|10=123|
8=FIX.4.4|9=56|35=D|49=SENDER|56=TARGET|34=1|10=123|
8=FIX.4.4|9=56|35=D|49=SENDER|56=TARGET|34=1|10=123|
8=FIX.4.4|9=56|35=D|49=SENDER|56=TARGET|34=1|10=123|
8=FIX.4.4|9=56|35=D|49=SENDER|56=TARGET|34=1|10=123|
8=FIX.4.4|9=56|35=D|49=SENDER|56=TARGET|34=1|10=123|
8=FIX.4.4|9=56|35=D|49=SENDER|56=TARGET|34=1|10=123|
8=FIX.4.4|9=56|35=D|49=SENDER|56=TARGET|34=1|10=123|
8=FIX.4.4|9=56|35=D|49=SENDER|56=TARGET|34=1|10=123|
8=FIX.4.4|9=56|35=D|49=SENDER|56=TARGET|34=1|10=123|
8=FIX.4.4|9=56|35=D|49=SENDER|56=TARGET|34=1|10=123|
8=FIX.4.4|9=56|35=D|49=SENDER|56=TARGET|34=1|10=123|
8=FIX.4.4|9=56|35=D|49=SENDER|56=TARGET|34=1|10=123|
8=FIX.4.4|9=56|35=D|49=SENDER|56=TARGET|34=1|10=123|
8=FIX.4.4|9=56|35=D|49=SENDER|56=TARGET|34=1|10=123|
8=FIX.4.4|9=56|35=D|49=SENDER|56=TARGET|34=1|10=123|
8=FIX.4.4|9=56|35=D|49=SENDER|56=TARGET|34=1|10=123|
8=FIX.4.4|9=56|35=D|49=SENDER|56=TARGET|34=1|10=123|
8=FIX.4.4|9=56|35=D|49=SENDER|56=TARGET|34=1|10=123|
8=FIX.4.4|9=56|35=D|49=SENDER|56=TARGET|34=1|10=123|
8=FIX.4.4|9=56|35=D|49=SENDER|56=TARGET|34=1|10=123|
8=FIX.4.4|9=56|35=D|49=SENDER|56=TARGET|34=1|10=123|
8=FIX.4.4|9=56|35=D|49=SENDER|56=TARGET|34=1|10=123|
8=FIX.4.4|9=56|35=D|49=SENDER|56=TARGET|34=1|10=123|
8=FIX.4.4|9=56|35=D|49=SENDER|56=TARGET|34=1|10=123|
8=FIX.4.4|9=56|35=D|49=SENDER|56=TARGET|34=1|10=123|
8=FIX.4.4|9=56|35=D|49=SENDER|56=TARGET|34=1|10=123|
8=FIX.4.4|9=56|35=D|49=SENDER|56=TARGET|34=1|10=123|
8=FIX.4.4|9=56|35=D|49=SENDER|56=TARGET|34=1|10=123|
8=FIX.4.4|9=56|35=D|49=SENDER|56=TARGET|34=1|10=123|
8=FIX.4.4|9=56|35=D|49=SENDER|56=TARGET|34=1|10=123|
8=FIX.4.4|9=56|35=D|49=SENDER|56=TARGET|34=1|10=123|
8=FIX.4.4|9=56|35=D|49=SENDER|56=TARGET|34=1|10=123|
8=FIX.4.4|9=56|35=D|49=SENDER|56=TARGET|34=1|10=123|
8=FIX.4.4|9=56|35=D|49=SENDER|56=TARGET|34=1|10=123|
8=FIX.4.4|9=56|35=D|49=SENDER|56=TARGET|34=1|10=123|
8=FIX.4.4|9=56|35=D|49=SENDER|56=TARGET|34=1|10=123|
8=FIX.4.4|9=56|35=D|49=SENDER|56=TARGET|34=1|10=123|
8=FIX.4.4|9=56|35=D|49=SENDER|56=TARGET|34=1|10=123|
8=FIX.4.4|9=56|35=D|49=SENDER|56=TARGET|34=1|10=123|
8=FIX.4.4|9=56|35=D|49=SENDER|56=TARGET|34=1|10=123|
8=FIX.4.4|9=56|35=D|49=SENDER|56=TARGET|34=1|10=123|
8=FIX.4.4|9=56|35=D|49=SENDER|56=TARGET|34=1|10=123|
8=FIX.4.4|9=56|35=D|49=SENDER|56=TARGET|34=1|10=123|
8=FIX.4.4|9=56|35=D|49=SENDER|56=TARGET|34=1|10=123|
8=FIX.4.4|9=56|35=D|49=SENDER|56=TARGET|34=1|10=123|
8=FIX.4.4|9=56|35=D|49=SENDER|56=TARGET|34=1|10=123|
8=FIX.4.4|9=56|35=D|49=SENDER|56=TARGET|34=1|10=123|
8=FIX.4.4|9=56|35=D|49=SENDER|56=TARGET|34=1|10=123|
8=FIX.4.4|9=56|35=D|49=SENDER|56=TARGET|34=1|10=123|
8=FIX.4.4|9=56|35=D|49=SENDER|56=TARGET|34=1|10=123|
8=FIX.4.4|9=56|35=D|49=SENDER|56=TARGET|34=1|10=123|
8=FIX.4.4|9=56|35=D|49=SENDER|56=TARGET|34=1|10=123|
8=FIX.4.4|9=56|35=D|49=SENDER|56=TARGET|34=1|10=123|
8=FIX.4.4|9=56|35=D|49=SENDER|56=TARGET|34=1|10=123|
8=FIX.4.4|9=56|35=D|49=SENDER|56=TARGET|34=1|10=123|
8=FIX.4.4|9=56|35=D|49=SENDER|56=TARGET|34=1|10=123|
8=FIX.4.4|9=56|35=D|49=SENDER|56=TARGET|34=1|10=123|
8=FIX.4.4|9=56|35=D|49=SENDER|56=TARGET|34=1|10=123|
8=FIX.4.4|9=56|35=D|49=SENDER|56=TARGET|34=1|10=123|
8=FIX.4.4|9=56|35=D|49=SENDER|56=TARGET|34=1|10=123|
8=FIX.4.4|9=56|35=D|49=SENDER|56=TARGET|34=1|10=123|
8=FIX.4.4|9=56|35=D|49=SENDER|56=TARGET|34=1|10=123|
8=FIX.4.4|9=56|35=D|49=SENDER|56=TARGET|34=1|10=123|
8=FIX.4.4|9=56|35=D|49=SENDER|56=TARGET|34=1|10=123|
8=FIX.4.4|9=56|35=D|49=SENDER|56=TARGET|34=1|10=123|
8=FIX.4.4|9=56|35=D|49=SENDER|56=TARGET|34=1|10=123|
8=FIX.4.4|9=56|35=D|49=SENDER|56=TARGET|34=1|10=123|
8=FIX.4.4|9=56|35=D|49=SENDER|56=TARGET|34=1|10=123|
8=FIX.4.4|9=56|35=D|49=SENDER|56=TARGET|34=1|10=123|
8=FIX.4.4|9=56|35=D|49=SENDER|56=TARGET|34=1|10=123|
8=FIX.4.4|9=56|35=D|49=SENDER|56=TARGET|34=1|10=123|
8=FIX.4.4|9=56|35=D|49=SENDER|56=TARGET|34=1|10=123|
8=FIX.4.4|9=56|35=D|49=SENDER|56=TARGET|34=1|10=123|
8=FIX.4.4|9=56|35=D|49=SENDER|56=TARGET|34=1|10=123|
8=FIX.4.4|9=56|35=D|49=SENDER|56=TARGET|34=1|10=123|
8=FIX.4.4|9=56|35=D|49=SENDER|56=TARGET|34=1|10=123|
8=FIX.4.4|9=56|35=D|49=SENDER|56=TARGET|34=1|10=123|
8=FIX.4.4|9=56|35=D|49=SENDER|56=TARGET|34=1|10=123|
8=FIX.4.4|9=56|35=D|49=SENDER|56=TARGET|34=1|10=123|
8=FIX.4.4|9=56|35=D|49=SENDER|56=TARGET|34=1|10=123|
8=FIX.4.4|9=56|35=D|49=SENDER|56=TARGET|34=1|10=123|
8=FIX.4.4|9=56|35=D|49=SENDER|56=TARGET|34=1|10=123|
8=FIX.4.4|9=56|35=D|49=SENDER|56=TARGET|34=1|10=123|
8=FIX.4.4|9=56|35=D|49=SENDER|56=TARGET|34=1|10=123|
8=FIX.4.4|9=56|35=D|49=SENDER|56=TARGET|34=1|10=123|
8=FIX.4.4|9=56|35=D|49=SENDER|56=TARGET|34=1|10=123|
8=FIX.4.4|9=56|35=D|49=SENDER|56=TARGET|34=1|10=123|
8=FIX.4.4|9=56|35=D|49=SENDER|56=TARGET|34=1|10=123|
8=FIX.4.4|9=56|35=D|49=SENDER|56=TARGET|34=1|10=123|
8=FIX.4.4|9=56|35=D|49=SENDER|56=TARGET|34=1|10=123|
8=FIX.4.4|9=56|35=D|49=SENDER|56=TARGET|34=1|10=123|
8=FIX.4.4|9=56|35=D|49=SENDER|56=TARGET|34=1|10=123|
8=FIX.4.4|9=56|35=D|49=SENDER|56=TARGET|34=1|10=123|
8=FIX.4.4|9=56|35=D|49=SENDER|56=TARGET|34=1|10=123|
8=FIX.4.4|9=56|35=D|49=SENDER|56=TARGET|34=1|10=123|
8=FIX.4.4|9=56|35=D|49=SENDER|56=TARGET|34=1|10=123|
8=FIX.4.4|9=56|35=D|49=SENDER|56=TARGET|34=1|10=123|
8=FIX.4.4|9=56|35=D|49=SENDER|56=TARGET|34=1|10=123|
8=FIX.4.4|9=56|35=D|49=SENDER|56=TARGET|34=1|10=123|
8=FIX.4.4|9=56|35=D|49=SENDER|56=TARGET|34=1|10=123|
8=FIX.4.4|9=56|35=D|49=SENDER|56=TARGET|34=1|10=123|
8=FIX.4.4|9=56|35=D|49=SENDER|56=TARGET|34=1|10=123|
8=FIX.4.4|9=56|35=D|49=SENDER|56=TARGET|34=1|10=123|
8=FIX.4.4|9=56|35=D|49=SENDER|56=TARGET|34=1|10=123|
8=FIX.4.4|9=56|35=D|49=SENDER|56=TARGET|34=1|10=123|
8=FIX.4.4|9=56|35=D|49=SENDER|56=TARGET|34=1|10=123|
8=FIX.4.4|9=56|35=D|49=SENDER|56=TARGET|34=1|10=123|
8=FIX.4.4|9=56|35=D|49=SENDER|56=TARGET|34=1|10=123|
8=FIX.4.4|9=56|35=D|49=SENDER|56=TARGET|34=1|10=123|
8=FIX.4.4|9=56|35=D|49=SENDER|56=TARGET|34=1|10=123|
8=FIX.4.4|9=56|35=D|49=SENDER|56=TARGET|34=1|10=123|
8=FIX.4.4|9=56|35=D|49=SENDER|56=TARGET|34=1|10=123|
8=FIX.4.4|9=56|35=D|49=SENDER|56=TARGET|34=1|10=123|
8=FIX.4.4|9=56|35=D|49=SENDER|56=TARGET|34=1|10=123|
8=FIX.4.4|9=56|35=D|49=SENDER|56=TARGET|34=1|10=123|
8=FIX.4.4|9=56|35=D|49=SENDER|56=TARGET|34=1|10=123|
8=FIX.4.4|9=56|35=D|49=SENDER|56=TARGET|34=1|10=123|
8=FIX.4.4|9=56|35=D|49=SENDER|56=TARGET|34=1|10=123|
8=FIX.4.4|9=56|35=D|49=SENDER|56=TARGET|34=1|10=123|
8=FIX.4.4|9=56|35=D|49=SENDER|56=TARGET|34=1|10=123|
8=FIX.4.4|9=56|35=D|49=SENDER|56=TARGET|34=1|10=123|
8=FIX.4.4|9=56|35=D|49=SENDER|56=TARGET|34=1|10=123|
8=FIX.4.4|9=56|35=D|49=SENDER|56=TARGET|34=1|10=123|
8=FIX.4.4|9=56|35=D|49=SENDER|56=TARGET|34=1|10=123|
8=FIX.4.4|9=56|35=D|49=SENDER|56=TARGET|34=1|10=123|
8=FIX.4.4|9=56|35=D|49=SENDER|56=TARGET|34=1|10=123|
8=FIX.4.4|9=56|35=D|49=SENDER|56=TARGET|34=1|10=123|
8=FIX.4.4|9=56|35=D|49=SENDER|56=TARGET|34=1|10=123|
8=FIX.4.4|9=56|35=D|49=SENDER|56=TARGET|34=1|10=123|
8=FIX.4.4|9=56|35=D|49=SENDER|56=TARGET|34=1|10=123|
8=FIX.4.4|9=56|35=D|49=SENDER|56=TARGET|34=1|10=123|
8=FIX.4.4|9=56|35=D|49=SENDER|56=TARGET|34=1|10=123|
8=FIX.4.4|9=56|35=D|49=SENDER|56=TARGET|34=1|10=123|
8=FIX.4.4|9=56|35=D|49=SENDER|56=TARGET|34=1|10=123|
8=FIX.4.4|9=56|35=D|49=SENDER|56=TARGET|34=1|10=123|
8=FIX.4.4|9=56|35=D|49=SENDER|56=TARGET|34=1|10=123|
8=FIX.4.4|9=56|35=D|49=SENDER|56=TARGET|34=1|10=123|
8=FIX.4.4|9=56|35=D|49=SENDER|56=TARGET|34=1|10=123|
8=FIX.4.4|9=56|35=D|49=SENDER|56=TARGET|34=1|10=123|
8=FIX.4.4|9=56|35=D|49=SENDER|56=TARGET|34=1|10=123|
8=FIX.4.4|9=56|35=D|49=SENDER|56=TARGET|34=1|10=123|
8=FIX.4.4|9=56|35=D|49=SENDER|56=TARGET|34=1|10=123|
8=FIX.4.4|9=56|35=D|49=SENDER|56=TARGET|34=1|10=123|
8=FIX.4.4|9=56|35=D|49=SENDER|56=TARGET|34=1|10=123|
8=FIX.4.4|9=56|35=D|49=SENDER|56=TARGET|34=1|10=123|
8=FIX.4.4|9=56|35=D|49=SENDER|56=TARGET|34=1|10=123|
8=FIX.4.4|9=56|35=D|49=SENDER|56=TARGET|34=1|10=123|
8=FIX.4.4|9=56|35=D|49=SENDER|56=TARGET|34=1|10=123|
8=FIX.4.4|9=56|35=D|49=SENDER|56=TARGET|34=1|10=123|
8=FIX.4.4|9=56|35=D|49=SENDER|56=TARGET|34=1|10=123|
8=FIX.4.4|9=56|35=D|49=SENDER|56=TARGET|34=1|10=123|
8=FIX.4.4|9=56|35=D|49=SENDER|56=TARGET|34=1|10=123|
8=FIX.4.4|9=56|35=D|49=SENDER|56=TARGET|34=1|10=123|
8=FIX.4.4|9=56|35=D|49=SENDER|56=TARGET|34=1|10=123|
8=FIX.4.4|9=56|35=D|49=SENDER|56=TARGET|34=1|10=123|
8=FIX.4.4|9=56|35=D|49=SENDER|56=TARGET|34=1|10=123|
8=FIX.4.4|9=56|35=D|49=SENDER|56=TARGET|34=1|10=123|
8=FIX.4.4|9=56|35=D|49=SENDER|56=TARGET|34=1|10=123|
8=FIX.4.4|9=56|35=D|49=SENDER|56=TARGET|34=1|10=123|
8=FIX.4.4|9=56|35=D|49=SENDER|56=TARGET|34=1|10=123|
8=FIX.4.4|9=56|35=D|49=SENDER|56=TARGET|34=1|10=123|
8=FIX.4.4|9=56|35=D|49=SENDER|56=TARGET|34=1|10=123|
8=FIX.4.4|9=56|35=D|49=SENDER|56=TARGET|34=1|10=123|
8=FIX.4.4|9=56|35=D|49=SENDER|56=TARGET|34=1|10=123|
8=FIX.4.4|9=56|35=D|49=SENDER|56=TARGET|34=1|10=123|
8=FIX.4.4|9=56|35=D|49=SENDER|56=TARGET|34=1|10=123|
8=FIX.4.4|9=56|35=D|49=SENDER|56=TARGET|34=1|10=123|
8=FIX.4.4|9=56|35=D|49=SENDER|56=TARGET|34=1|10=123|
8=FIX.4.4|9=56|35=D|49=SENDER|56=TARGET|34=1|10=123|
8=FIX.4.4|9=56|35=D|49=SENDER|56=TARGET|34=1|10=123|
8=FIX.4.4|9=56|35=D|49=SENDER|56=TARGET|34=1|10=123|
8=FIX.4.4|9=56|35=D|49=SENDER|56=TARGET|34=1|10=123|
8=FIX.4.4|9=56|35=D|49=SENDER|56=TARGET|34=1|10=123|
8=FIX.4.4|9=56|35=D|49=SENDER|56=TARGET|34=1|10=123|
8=FIX.4.4|9=56|35=D|49=SENDER|56=TARGET|34=1|10=123|
8=FIX.4.4|9=56|35=D|49=SENDER|56=TARGET|34=1|10=123|
8=FIX.4.4|9=56|35=D|49=SENDER|56=TARGET|34=1|10=123|
8=FIX.4.4|9=56|35=D|49=SENDER|56=TARGET|34=1|10=123|
8=FIX.4.4|9=56|35=D|49=SENDER|56=TARGET|34=1|10=123|
8=FIX.4.4|9=56|35=D|49=SENDER|56=TARGET|34=1|10=123|
8=FIX.4.4|9=56|35=D|49=SENDER|56=TARGET|34=1|10=123|
8=FIX.4.4|9=56|35=D|49=SENDER|56=TARGET|34=1|10=123|
8=FIX.4.4|9=56|35=D|49=SENDER|56=TARGET|34=1|10=123|
8=FIX.4.4|9=56|35=D|49=SENDER|56=TARGET|34=1|10=123|
8=FIX.4.4|9=56|35=D|49=SENDER|56=TARGET|34=1|10=123|
8=FIX.4.4|9=56|35=D|49=SENDER|56=TARGET|34=1|10=123|
8=FIX.4.4|9=56|35=D|49=SENDER|56=TARGET|34=1|10=123|
8=FIX.4.4|9=56|35=D|49=SENDER|56=TARGET|34=1|10=123|
8=FIX.4.4|9=56|35=D|49=SENDER|56=TARGET|34=1|10=123|
8=FIX.4.4|9=56|35=D|49=SENDER|56=TARGET|34=1|10=123|
8=FIX.4.4|9=56|35=D|49=SENDER|56=TARGET|34=1|10=123|
8=FIX.4.4|9=56|35=D|49=SENDER|56=TARGET|34=1|10=123|
8=FIX.4.4|9=56|35=D|49=SENDER|56=TARGET|34=1|10=123|
8=FIX.4.4|9=56|35=D|49=SENDER|56=TARGET|34=1|10=123|
8=FIX.4.4|9=56|35=D|49=SENDER|56=TARGET|34=1|10=123|
8=FIX.4.4|9=56|35=D|49=SENDER|56=TARGET|34=1|10=123|
8=FIX.4.4|9=56|35=D|49=SENDER|56=TARGET|34=1|10=123|
8=FIX.4.4|9=56|35=D|49=SENDER|56=TARGET|34=1|10=123|
8=FIX.4.4|9=56|35=D|49=SENDER|56=TARGET|34=1|10=123|
8=FIX.4.4|9=56|35=D|49=SENDER|56=TARGET|34=1|10=123|
8=FIX.4.4|9=56|35=D|49=SENDER|56=TARGET|34=1|10=123|
8=FIX.4.4|9=56|35=D|49=SENDER|56=TARGET|34=1|10=123|
8=FIX.4.4|9=56|35=D|49=SENDER|56=TARGET|34=1|10=123|
8=FIX.4.4|9=56|35=D|49=SENDER|56=TARGET|34=1|10=123|
8=FIX.4.4|9=56|35=D|49=SENDER|56=TARGET|34=1|10=123|
8=FIX.4.4|9=56|35=D|49=SENDER|56=TARGET|34=1|10=123|
8=FIX.4.4|9=56|35=D|49=SENDER|56=TARGET|34=1|10=123|
8=FIX.4.4|9=56|35=D|49=SENDER|56=TARGET|34=1|10=123|
8=FIX.4.4|9=56|35=D|49=SENDER|56=TARGET|34=1|10=123|
8=FIX.4.4|9=56|35=D|49=SENDER|56=TARGET|34=1|10=123|
8=FIX.4.4|9=56|35=D|49=SENDER|56=TARGET|34=1|10=123|
8=FIX.4.4|9=56|35=D|49=SENDER|56=TARGET|34=1|10=123|
8=FIX.4.4|9=56|35=D|49=SENDER|56=TARGET|34=1|10=123|
8=FIX.4.4|9=56|35=D|49=SENDER|56=TARGET|34=1|10=123|
8=FIX.4.4|9=56|35=D|49=SENDER|56=TARGET|34=1|10=123|
8=FIX.4.4|9=56|35=D|49=SENDER|56=TARGET|34=1|10=123|
8=FIX.4.4|9=56|35=D|49=SENDER|56=TARGET|34=1|10=123|
8=FIX.4.4|9=56|35=D|49=SENDER|56=TARGET|34=1|10=123|
8=FIX.4.4|9=56|35=D|49=SENDER|56=TARGET|34=1|10=123|
8=FIX.4.4|9=56|35=D|49=SENDER|56=TARGET|34=1|10=123|
8=FIX.4.4|9=56|35=D|49=SENDER|56=TARGET|34=1|10=123|
8=FIX.4.4|9=56|35=D|49=SENDER|56=TARGET|34=1|10=123|
8=FIX.4.4|9=56|35=D|49=SENDER|56=TARGET|34=1|10=123|
8=FIX.4.4|9=56|35=D|49=SENDER|56=TARGET|34=1|10=123|
8=FIX.4.4|9=56|35=D|49=SENDER|56=TARGET|34=1|10=123|
8=FIX.4.4|9=56|35=D|49=SENDER|56=TARGET|34=1|10=123|
8=FIX.4.4|9=56|35=D|49=SENDER|56=TARGET|34=1|10=123|
8=FIX.4.4|9=56|35=D|49=SENDER|56=TARGET|34=1|10=123|
8=FIX.4.4|9=56|35=D|49=SENDER|56=TARGET|34=1|10=123|
8=FIX.4.4|9=56|35=D|49=SENDER|56=TARGET|34=1|10=123|
8=FIX.4.4|9=56|35=D|49=SENDER|56=TARGET|34=1|10=123|
8=FIX.4.4|9=56|35=D|49=SENDER|56=TARGET|34=1|10=123|
8=FIX.4.4|9=56|35=D|49=SENDER|56=TARGET|34=1|10=123|
8=FIX.4.4|9=56|35=D|49=SENDER|56=TARGET|34=1|10=123|
8=FIX.4.4|9=56|35=D|49=SENDER|56=TARGET|34=1|10=123|
8=FIX.4.4|9=56|35=D|49=SENDER|56=TARGET|34=1|10=123|
8=FIX.4.4|9=56|35=D|49=SENDER|56=TARGET|34=1|10=123|
8=FIX.4.4|9=56|35=D|49=SENDER|56=TARGET|34=1|10=123|
8=FIX.4.4|9=56|35=D|49=SENDER|56=TARGET|34=1|10=123|
8=FIX.4.4|9=56|35=D|49=SENDER|56=TARGET|34=1|10=123|
8=FIX.4.4|9=56|35=D|49=SENDER|56=TARGET|34=1|10=123|
8=FIX.4.4|9=56|35=D|49=SENDER|56=TARGET|34=1|10=123|
8=FIX.4.4|9=56|35=D|49=SENDER|56=TARGET|34=1|10=123|
8=FIX.4.4|9=56|35=D|49=SENDER|56=TARGET|34=1|10=123|
8=FIX.4.4|9=56|35=D|49=SENDER|56=TARGET|34=1|10=123|
8=FIX.4.4|9=56|35=D|49=SENDER|56=TARGET|34=1|10=123|
8=FIX.4.4|9=56|35=D|49=SENDER|56=TARGET|34=1|10=123|
8=FIX.4.4|9=56|35=D|49=SENDER|56=TARGET|34=1|10=123|
8=FIX.4.4|9=56|35=D|49=SENDER|56=TARGET|34=1|10=123|
8=FIX.4.4|9=56|35=D|49=SENDER|56=TARGET|34=1|10=123|
8=FIX.4.4|9=56|35=D|49=SENDER|56=TARGET|34=1|10=123|
8=FIX.4.4|9=56|35=D|49=SENDER|56=TARGET|34=1|10=123|
8=FIX.4.4|9=56|35=D|49=SENDER|56=TARGET|34=1|10=123|
8=FIX.4.4|9=56|35=D|49=SENDER|56=TARGET|34=1|10=123|
8=FIX.4.4|9=56|35=D|49=SENDER|56=TARGET|34=1|10=123|
8=FIX.4.4|9=56|35=D|49=SENDER|56=TARGET|34=1|10=123|
8=FIX.4.4|9=56|35=D|49=SENDER|56=TARGET|34=1|10=123|
8=FIX.4.4|9=56|35=D|49=SENDER|56=TARGET|34=1|10=123|
8=FIX.4.4|9=56|35=D|49=SENDER|56=TARGET|34=1|10=123|
8=FIX.4.4|9=56|35=D|49=SENDER|56=TARGET|34=1|10=123|
8=FIX.4.4|9=56|35=D|49=SENDER|56=TARGET|34=1|10=123|
8=FIX.4.4|9=56|35=D|49=SENDER|56=TARGET|34=1|10=123|
8=FIX.4.4|9=56|35=D|49=SENDER|56=TARGET|34=1|10=123|
8=FIX.4.4|9=56|35=D|49=SENDER|56=TARGET|34=1|10=123|
8=FIX.4.4|9=56|35=D|49=SENDER|56=TARGET|34=1|10=123|
8=FIX.4.4|9=56|35=D|49=SENDER|56=TARGET|34=1|10=123|
8=FIX.4.4|9=56|35=D|49=SENDER|56=TARGET|34=1|10=123|
8=FIX.4.4|9=56|35=D|49=SENDER|56=TARGET|34=1|10=123|
8=FIX.4.4|9=56|35=D|49=SENDER|56=TARGET|34=1|10=123|
8=FIX.4.4|9=56|35=D|49=SENDER|56=TARGET|34=1|10=123|
8=FIX.4.4|9=56|35=D|49=SENDER|56=TARGET|34=1|10=123|
8=FIX.4.4|9=56|35=D|49=SENDER|56=TARGET|34=1|10=123|
8=FIX.4.4|9=56|35=D|49=SENDER|56=TARGET|34=1|10=123|
8=FIX.4.4|9=56|35=D|49=SENDER|56=TARGET|34=1|10=123|
8=FIX.4.4|9=56|35=D|49=SENDER|56=TARGET|34=1|10=123|
8=FIX.4.4|9=56|35=D|49=SENDER|56=TARGET|34=1|10=123|
8=FIX.4.4|9=56|35=D|49=SENDER|56=TARGET|34=1|10=123|
8=FIX.4.4|9=56|35=D|49=SENDER|56=TARGET|34=1|10=123|
8=FIX.4.4|9=56|35=D|49=SENDER|56=TARGET|34=1|10=123|
8=FIX.4.4|9=56|35=D|49=SENDER|56=TARGET|34=1|10=123|
8=FIX.4.4|9=56|35=D|49=SENDER|56=TARGET|34=1|10=123|
8=FIX.4.4|9=56|35=D|49=SENDER|56=TARGET|34=1|10=123|
8=FIX.4.4|9=56|35=D|49=SENDER|56=TARGET|34=1|10=123|
8=FIX.4.4|9=56|35=D|49=SENDER|56=TARGET|34=1|10=123|
8=FIX.4.4|9=56|35=D|49=SENDER|56=TARGET|34=1|10=123|
8=FIX.4.4|9=56|35=D|49=SENDER|56=TARGET|34=1|10=123|
8=FIX.4.4|9=56|35=D|49=SENDER|56=TARGET|34=1|10=123|
8=FIX.4.4|9=56|35=D|49=SENDER|56=TARGET|34=1|10=123|
8=FIX.4.4|9=56|35=D|49=SENDER|56=TARGET|34=1|10=123|
8=FIX.4.4|9=56|35=D|49=SENDER|56=TARGET|34=1|10=123|
8=FIX.4.4|9=56|35=D|49=SENDER|56=TARGET|34=1|10=123|
8=FIX.4.4|9=56|35=D|49=SENDER|56=TARGET|34=1|10=123|
8=FIX.4.4|9=56|35=D|49=SENDER|56=TARGET|34=1|10=123|
8=FIX.4.4|9=56|35=D|49=SENDER|56=TARGET|34=1|10=123|
8=FIX.4.4|9=56|35=D|49=SENDER|56=TARGET|34=1|10=123|
8=FIX.4.4|9=56|35=D|49=SENDER|56=TARGET|34=1|10=123|
8=FIX.4.4|9=56|35=D|49=SENDER|56=TARGET|34=1|10=123|
8=FIX.4.4|9=56|35=D|49=SENDER|56=TARGET|34=1|10=123|
8=FIX.4.4|9=56|35=D|49=SENDER|56=TARGET|34=1|10=123|
8=FIX.4.4|9=56|35=D|49=SENDER|56=TARGET|34=1|10=123|
8=FIX.4.4|9=56|35=D|49=SENDER|56=TARGET|34=1|10=123|
8=FIX.4.4|9=56|35=D|49=SENDER|56=TARGET|34=1|10=123|
8=FIX.4.4|9=56|35=D|49=SENDER|56=TARGET|34=1|10=123|
8=FIX.4.4|9=56|35=D|49=SENDER|56=TARGET|34=1|10=123|
8=FIX.4.4|9=56|35=D|49=SENDER|56=TARGET|34=1|10=123|
8=FIX.4.4|9=56|35=D|49=SENDER|56=TARGET|34=1|10=123|
8=FIX.4.4|9=56|35=D|49=SENDER|56=TARGET|34=1|10=123|
8=FIX.4.4|9=56|35=D|49=SENDER|56=TARGET|34=1|10=123|
8=FIX.4.4|9=56|35=D|49=SENDER|56=TARGET|34=1|10=123|
8=FIX.4.4|9=56|35=D|49=SENDER|56=TARGET|34=1|10=123|
8=FIX.4.4|9=56|35=D|49=SENDER|56=TARGET|34=1|10=123|
8=FIX.4.4|9=56|35=D|49=SENDER|56=TARGET|34=1|10=123|
8=FIX.4.4|9=56|35=D|49=SENDER|56=TARGET|34=1|10=123|
8=FIX.4.4|9=56|35=D|49=SENDER|56=TARGET|34=1|10=123|
8=FIX.4.4|9=56|35=D|49=SENDER|56=TARGET|34=1|10=123|
8=FIX.4.4|9=56|35=D|49=SENDER|56=TARGET|34=1|10=123|
8=FIX.4.4|9=56|35=D|49=SENDER|56=TARGET|34=1|10=123|
8=FIX.4.4|9=56|35=D|49=SENDER|56=TARGET|34=1|10=123|
8=FIX.4.4|9=56|35=D|49=SENDER|56=TARGET|34=1|10=123|
8=FIX.4.4|9=56|35=D|49=SENDER|56=TARGET|34=1|10=123|
8=FIX.4.4|9=56|35=D|49=SENDER|56=TARGET|34=1|10=123|
8=FIX.4.4|9=56|35=D|49=SENDER|56=TARGET|34=1|10=123|
8=FIX.4.4|9=56|35=D|49=SENDER|56=TARGET|34=1|10=123|
8=FIX.4.4|9=56|35=D|49=SENDER|56=TARGET|34=1|10=123|
8=FIX.4.4|9=56|35=D|49=SENDER|56=TARGET|34=1|10=123|
8=FIX.4.4|9=56|35=D|49=SENDER|56=TARGET|34=1|10=123|
8=FIX.4.4|9=56|35=D|49=SENDER|56=TARGET|34=1|10=123|
8=FIX.4.4|9=56|35=D|49=SENDER|56=TARGET|34=1|10=123|
8=FIX.4.4|9=56|35=D|49=SENDER|56=TARGET|34=1|10=123|
8=FIX.4.4|9=56|35=D|49=SENDER|56=TARGET|34=1|10=123|
8=FIX.4.4|9=56|35=D|49=SENDER|56=TARGET|34=1|10=123|
8=FIX.4.4|9=56|35=D|49=SENDER|56=TARGET|34=1|10=123|
8=FIX.4.4|9=56|35=D|49=SENDER|56=TARGET|34=1|10=123|
8=FIX.4.4|9=56|35=D|49=SENDER|56=TARGET|34=1|10=123|
8=FIX.4.4|9=56|35=D|49=SENDER|56=TARGET|34=1|10=123|
8=FIX.4.4|9=56|35=D|49=SENDER|56=TARGET|34=1|10=123|
8=FIX.4.4|9=56|35=D|49=SENDER|56=TARGET|34=1|10=123|
8=FIX.4.4|9=56|35=D|49=SENDER|56=TARGET|34=1|10=123|
8=FIX.4.4|9=56|35=D|49=SENDER|56=TARGET|34=1|10=123|
8=FIX.4.4|9=56|35=D|49=SENDER|56=TARGET|34=1|10=123|
8=FIX.4.4|9=56|35=D|49=SENDER|56=TARGET|34=1|10=123|
8=FIX.4.4|9=56|35=D|49=SENDER|56=TARGET|34=1|10=123|
8=FIX.4.4|9=56|35=D|49=SENDER|56=TARGET|34=1|10=123|
8=FIX.4.4|9=56|35=D|49=SENDER|56=TARGET|34=1|10=123|
8=FIX.4.4|9=56|35=D|49=SENDER|56=TARGET|34=1|10=123|
8=FIX.4.4|9=56|35=D|49=SENDER|56=TARGET|34=1|10=123|
8=FIX.4.4|9=56|35=D|49=SENDER|56=TARGET|34=1|10=123|
8=FIX.4.4|9=56|35=D|49=SENDER|56=TARGET|34=1|10=123|
8=FIX.4.4|9=56|35=D|49=SENDER|56=TARGET|34=1|10=123|
8=FIX.4.4|9=56|35=D|49=SENDER|56=TARGET|34=1|10=123|
8=FIX.4.4|9=56|35=D|49=SENDER|56=TARGET|34=1|10=123|
8=FIX.4.4|9=56|35=D|49=SENDER|56=TARGET|34=1|10=123|
8=FIX.4.4|9=56|35=D|49=SENDER|56=TARGET|34=1|10=123|
8=FIX.4.4|9=56|35=D|49=SENDER|56=TARGET|34=1|10=123|
8=FIX.4.4|9=56|35=D|49=SENDER|56=TARGET|34=1|10=123|
8=FIX.4.4|9=56|35=D|49=SENDER|56=TARGET|34=1|10=123|
8=FIX.4.4|9=56|35=D|49=SENDER|56=TARGET|34=1|10=123|
8=FIX.4.4|9=56|35=D|49=SENDER|56=TARGET|34=1|10=123|
8=FIX.4.4|9=56|35=D|49=SENDER|56=TARGET|34=1|10=123|
8=FIX.4.4|9=56|35=D|49=SENDER|56=TARGET|34=1|10=123|
8=FIX.4.4|9=56|35=D|49=SENDER|56=TARGET|34=1|10=123|
8=FIX.4.4|9=56|35=D|49=SENDER|56=TARGET|34=1|10=123|
8=FIX.4.4|9=56|35=D|49=SENDER|56=TARGET|34=1|10=123|
8=FIX.4.4|9=56|35=D|49=SENDER|56=TARGET|34=1|10=123|
8=FIX.4.4|9=56|35=D|49=SENDER|56=TARGET|34=1|10=123|
8=FIX.4.4|9=56|35=D|49=SENDER|56=TARGET|34=1|10=123|
8=FIX.4.4|9=56|35=D|49=SENDER|56=TARGET|34=1|10=123|
8=FIX.4.4|9=56|35=D|49=SENDER|56=TARGET|34=1|10=123|
8=FIX.4.4|9=56|35=D|49=SENDER|56=TARGET|34=1|10=123|
8=FIX.4.4|9=56|35=D|49=SENDER|56=TARGET|34=1|10=123|
8=FIX.4.4|9=56|35=D|49=SENDER|56=TARGET|34=1|10=123|
8=FIX.4.4|9=56|35=D|49=SENDER|56=TARGET|34=1|10=123|
8=FIX.4.4|9=56|35=D|49=SENDER|56=TARGET|34=1|10=123|
8=FIX.4.4|9=56|35=D|49=SENDER|56=TARGET|34=1|10=123|
8=FIX.4.4|9=56|35=D|49=SENDER|56=TARGET|34=1|10=123|
8=FIX.4.4|9=56|35=D|49=SENDER|56=TARGET|34=1|10=123|
8=FIX.4.4|9=56|35=D|49=SENDER|56=TARGET|34=1|10=123|
8=FIX.4.4|9=56|35=D|49=SENDER|56=TARGET|34=1|10=123|
8=FIX.4.4|9=56|35=D|49=SENDER|56=TARGET|34=1|10=123|
8=FIX.4.4|9=56|35=D|49=SENDER|56=TARGET|34=1|10=123|
8=FIX.4.4|9=56|35=D|49=SENDER|56=TARGET|34=1|10=123|
8=FIX.4.4|9=56|35=D|49=SENDER|56=TARGET|34=1|10=123|
8=FIX.4.4|9=56|35=D|49=SENDER|56=TARGET|34=1|10=123|
8=FIX.4.4|9=56|35=D|49=SENDER|56=TARGET|34=1|10=123|
8=FIX.4.4|9=56|35=D|49=SENDER|56=TARGET|34=1|10=123|
8=FIX.4.4|9=56|35=D|49=SENDER|56=TARGET|34=1|10=123|
8=FIX.4.4|9=56|35=D|49=SENDER|56=TARGET|34=1|10=123|
8=FIX.4.4|9=56|35=D|49=SENDER|56=TARGET|34=1|10=123|
8=FIX.4.4|9=56|35=D|49=SENDER|56=TARGET|34=1|10=123|
8=FIX.4.4|9=56|35=D|49=SENDER|56=TARGET|34=1|10=123|
8=FIX.4.4|9=56|35=D|49=SENDER|56=TARGET|34=1|10=123|
8=FIX.4.4|9=56|35=D|49=SENDER|56=TARGET|34=1|10=123|
8=FIX.4.4|9=56|35=D|49=SENDER|56=TARGET|34=1|10=123|
8=FIX.4.4|9=56|35=D|49=SENDER|56=TARGET|34=1|10=123|
8=FIX.4.4|9=56|35=D|49=SENDER|56=TARGET|34=1|10=123|
8=FIX.4.4|9=56|35=D|49=SENDER|56=TARGET|34=1|10=123|
8=FIX.4.4|9=56|35=D|49=SENDER|56=TARGET|34=1|10=123|
8=FIX.4.4|9=56|35=D|49=SENDER|56=TARGET|34=1|10=123|
8=FIX.4.4|9=56|35=D|49=SENDER|56=TARGET|34=1|10=123|
8=FIX.4.4|9=56|35=D|49=SENDER|56=TARGET|34=1|10=123|
8=FIX.4.4|9=56|35=D|49=SENDER|56=TARGET|34=1|10=123|
8=FIX.4.4|9=56|35=D|49=SENDER|56=TARGET|34=1|10=123|
8=FIX.4.4|9=56|35=D|49=SENDER|56=TARGET|34=1|10=123|
8=FIX.4.4|9=56|35=D|49=SENDER|56=TARGET|34=1|10=123|
8=FIX.4.4|9=56|35=D|49=SENDER|56=TARGET|34=1|10=123|
8=FIX.4.4|9=56|35=D|49=SENDER|56=TARGET|34=1|10=123|
8=FIX.4.4|9=56|35=D|49=SENDER|56=TARGET|34=1|10=123|
8=FIX.4.4|9=56|35=D|49=SENDER|56=TARGET|34=1|10=123|
8=FIX.4.4|9=56|35=D|49=SENDER|56=TARGET|34=1|10=123|
8=FIX.4.4|9=56|35=D|49=SENDER|56=TARGET|34=1|10=123|
8=FIX.4.4|9=56|35=D|49=SENDER|56=TARGET|34=1|10=123|
8=FIX.4.4|9=56|35=D|49=SENDER|56=TARGET|34=1|10=123|
8=FIX.4.4|9=56|35=D|49=SENDER|56=TARGET|34=1|10=123|
8=FIX.4.4|9=56|35=D|49=SENDER|56=TARGET|34=1|10=123|
8=FIX.4.4|9=56|35=D|49=SENDER|56=TARGET|34=1|10=123|
8=FIX.4.4|9=56|35=D|49=SENDER|56=TARGET|34=1|10=123|
8=FIX.4.4|9=56|35=D|49=SENDER|56=TARGET|34=1|10=123|
8=FIX.4.4|9=56|35=D|49=SENDER|56=TARGET|34=1|10=123|
8=FIX.4.4|9=56|35=D|49=SENDER|56=TARGET|34=1|10=123|
8=FIX.4.4|9=56|35=D|49=SENDER|56=TARGET|34=1|10=123|
8=FIX.4.4|9=56|35=D|49=SENDER|56=TARGET|34=1|10=123|
8=FIX.4.4|9=56|35=D|49=SENDER|56=TARGET|34=1|10=123|
8=FIX.4.4|9=56|35=D|49=SENDER|56=TARGET|34=1|10=123|
8=FIX.4.4|9=56|35=D|49=SENDER|56=TARGET|34=1|10=123|
8=FIX.4.4|9=56|35=D|49=SENDER|56=TARGET|34=1|10=123|
8=FIX.4.4|9=56|35=D|49=SENDER|56=TARGET|34=1|10=123|
8=FIX.4.4|9=56|35=D|49=SENDER|56=TARGET|34=1|10=123|
8=FIX.4.4|9=56|35=D|49=SENDER|56=TARGET|34=1|10=123|
8=FIX.4.4|9=56|35=D|49=SENDER|56=TARGET|34=1|10=123|
8=FIX.4.4|9=56|35=D|49=SENDER|56=TARGET|34=1|10=123|
8=FIX.4.4|9=56|35=D|49=SENDER|56=TARGET|34=1|10=123|
8=FIX.4.4|9=56|35=D|49=SENDER|56=TARGET|34=1|10=123|
8=FIX.4.4|9=56|35=D|49=SENDER|56=TARGET|34=1|10=123|
8=FIX.4.4|9=56|35=D|49=SENDER|56=TARGET|34=1|10=123|
8=FIX.4.4|9=56|35=D|49=SENDER|56=TARGET|34=1|10=123|
8=FIX.4.4|9=56|35=D|49=SENDER|56=TARGET|34=1|10=123|
8=FIX.4.4|9=56|35=D|49=SENDER|56=TARGET|34=1|10=123|
8=FIX.4.4|9=56|35=D|49=SENDER|56=TARGET|34=1|10=123|
8=FIX.4.4|9=56|35=D|49=SENDER|56=TARGET|34=1|10=123|
8=FIX.4.4|9=56|35=D|49=SENDER|56=TARGET|34=1|10=123|
8=FIX.4.4|9=56|35=D|49=SENDER|56=TARGET|34=1|10=123|
8=FIX.4.4|9=56|35=D|49=SENDER|56=TARGET|34=1|10=123|
8=FIX.4.4|9=56|35=D|49=SENDER|56=TARGET|34=1|10=123|
8=FIX.4.4|9=56|35=D|49=SENDER|56=TARGET|34=1|10=123|
8=FIX.4.4|9=56|35=D|49=SENDER|56=TARGET|34=1|10=123|
8=FIX.4.4|9=56|35=D|49=SENDER|56=TARGET|34=1|10=123|
8=FIX.4.4|9=56|35=D|49=SENDER|56=TARGET|34=1|10=123|
8=FIX.4.4|9=56|35=D|49=SENDER|56=TARGET|34=1|10=123|
8=FIX.4.4|9=56|35=D|49=SENDER|56=TARGET|34=1|10=123|
8=FIX.4.4|9=56|35=D|49=SENDER|56=TARGET|34=1|10=123|
8=FIX.4.4|9=56|35=D|49=SENDER|56=TARGET|34=1|10=123|
8=FIX.4.4|9=56|35=D|49=SENDER|56=TARGET|34=1|10=123|
8=FIX.4.4|9=56|35=D|49=SENDER|56=TARGET|34=1|10=123|
8=FIX.4.4|9=56|35=D|49=SENDER|56=TARGET|34=1|10=123|
8=FIX.4.4|9=56|35=D|49=SENDER|56=TARGET|34=1|10=123|
8=FIX.4.4|9=56|35=D|49=SENDER|56=TARGET|34=1|10=123|
8=FIX.4.4|9=56|35=D|49=SENDER|56=TARGET|34=1|10=123|
8=FIX.4.4|9=56|35=D|49=SENDER|56=TARGET|34=1|10=123|
8=FIX.4.4|9=56|35=D|49=SENDER|56=TARGET|34=1|10=123|
8=FIX.4.4|9=56|35=D|49=SENDER|56=TARGET|34=1|10=123|
8=FIX.4.4|9=56|35=D|49=SENDER|56=TARGET|34=1|10=123|
8=FIX.4.4|9=56|35=D|49=SENDER|56=TARGET|34=1|10=123|
8=FIX.4.4|9=56|35=D|49=SENDER|56=TARGET|34=1|10=123|
8=FIX.4.4|9=56|35=D|49=SENDER|56=TARGET|34=1|10=123|
8=FIX.4.4|9=56|35=D|49=SENDER|56=TARGET|34=1|10=123|
8=FIX.4.4|9=56|35=D|49=SENDER|56=TARGET|34=1|10=123|
8=FIX.4.4|9=56|35=D|49=SENDER|56=TARGET|34=1|10=123|
8=FIX.4.4|9=56|35=D|49=SENDER|56=TARGET|34=1|10=123|
8=FIX.4.4|9=56|35=D|49=SENDER|56=TARGET|34=1|10=123|
8=FIX.4.4|9=56|35=D|49=SENDER|56=TARGET|34=1|10=123|
8=FIX.4.4|9=56|35=D|49=SENDER|56=TARGET|34=1|10=123|
8=FIX.4.4|9=56|35=D|49=SENDER|56=TARGET|34=1|10=123|
8=FIX.4.4|9=56|35=D|49=SENDER|56=TARGET|34=1|10=123|
8=FIX.4.4|9=56|35=D|49=SENDER|56=TARGET|34=1|10=123|
8=FIX.4.4|9=56|35=D|49=SENDER|56=TARGET|34=1|10=123|
8=FIX.4.4|9=56|35=D|49=SENDER|56=TARGET|34=1|10=123|
8=FIX.4.4|9=56|35=D|49=SENDER|56=TARGET|34=1|10=123|
8=FIX.4.4|9=56|35=D|49=SENDER|56=TARGET|34=1|10=123|
8=FIX.4.4|9=56|35=D|49=SENDER|56=TARGET|34=1|10=123|
8=FIX.4.4|9=56|35=D|49=SENDER|56=TARGET|34=1|10=123|
8=FIX.4.4|9=56|35=D|49=SENDER|56=TARGET|34=1|10=123|
8=FIX.4.4|9=56|35=D|49=SENDER|56=TARGET|34=1|10=123|
8=FIX.4.4|9=56|35=D|49=SENDER|56=TARGET|34=1|10=123|
8=FIX.4.4|9=56|35=D|49=SENDER|56=TARGET|34=1|10=123|
8=FIX.4.4|9=56|35=D|49=SENDER|56=TARGET|34=1|10=123|
8=FIX.4.4|9=56|35=D|49=SENDER|56=TARGET|34=1|10=123|
8=FIX.4.4|9=56|35=D|49=SENDER|56=TARGET|34=1|10=123|
8=FIX.4.4|9=56|35=D|49=SENDER|56=TARGET|34=1|10=123|
8=FIX.4.4|9=56|35=D|49=SENDER|56=TARGET|34=1|10=123|
8=FIX.4.4|9=56|35=D|49=SENDER|56=TARGET|34=1|10=123|
8=FIX.4.4|9=56|35=D|49=SENDER|56=TARGET|34=1|10=123|
8=FIX.4.4|9=56|35=D|49=SENDER|56=TARGET|34=1|10=123|
8=FIX.4.4|9=56|35=D|49=SENDER|56=TARGET|34=1|10=123|
8=FIX.4.4|9=56|35=D|49=SENDER|56=TARGET|34=1|10=123|
8=FIX.4.4|9=56|35=D|49=SENDER|56=TARGET|34=1|10=123|
8=FIX.4.4|9=56|35=D|49=SENDER|56=TARGET|34=1|10=123|
8=FIX.4.4|9=56|35=D|49=SENDER|56=TARGET|34=1|10=123|
8=FIX.4.4|9=56|35=D|49=SENDER|56=TARGET|34=1|10=123|
8=FIX.4.4|9=56|35=D|49=SENDER|56=TARGET|34=1|10=123|
8=FIX.4.4|9=56|35=D|49=SENDER|56=TARGET|34=1|10=123|
8=FIX.4.4|9=56|35=D|49=SENDER|56=TARGET|34=1|10=123|
8=FIX.4.4|9=56|35=D|49=SENDER|56=TARGET|34=1|10=123|
8=FIX.4.4|9=56|35=D|49=SENDER|56=TARGET|34=1|10=123|
8=FIX.4.4|9=56|35=D|49=SENDER|56=TARGET|34=1|10=123|
8=FIX.4.4|9=56|35=D|49=SENDER|56=TARGET|34=1|10=123|
8=FIX.4.4|9=56|35=D|49=SENDER|56=TARGET|34=1|10=123|
8=FIX.4.4|9=56|35=D|49=SENDER|56=TARGET|34=1|10=123|
8=FIX.4.4|9=56|35=D|49=SENDER|56=TARGET|34=1|10=123|
8=FIX.4.4|9=56|35=D|49=SENDER|56=TARGET|34=1|10=123|
8=FIX.4.4|9=56|35=D|49=SENDER|56=TARGET|34=1|10=123|
8=FIX.4.4|9=56|35=D|49=SENDER|56=TARGET|34=1|10=123|
8=FIX.4.4|9=56|35=D|49=SENDER|56=TARGET|34=1|10=123|
8=FIX.4.4|9=56|35=D|49=SENDER|56=TARGET|34=1|10=123|
8=FIX.4.4|9=56|35=D|49=SENDER|56=TARGET|34=1|10=123|
8=FIX.4.4|9=56|35=D|49=SENDER|56=TARGET|34=1|10=123|
8=FIX.4.4|9=56|35=D|49=SENDER|56=TARGET|34=1|10=123|
8=FIX.4.4|9=56|35=D|49=SENDER|56=TARGET|34=1|10=123|
8=FIX.4.4|9=56|35=D|49=SENDER|56=TARGET|34=1|10=123|
8=FIX.4.4|9=56|35=D|49=SENDER|56=TARGET|34=1|10=123|
8=FIX.4.4|9=56|35=D|49=SENDER|56=TARGET|34=1|10=123|
8=FIX.4.4|9=56|35=D|49=SENDER|56=TARGET|34=1|10=123|
8=FIX.4.4|9=56|35=D|49=SENDER|56=TARGET|34=1|10=123|
8=FIX.4.4|9=56|35=D|49=SENDER|56=TARGET|34=1|10=123|
8=FIX.4.4|9=56|35=D|49=SENDER|56=TARGET|34=1|10=123|
8=FIX.4.4|9=56|35=D|49=SENDER|56=TARGET|34=1|10=123|
8=FIX.4.4|9=56|35=D|49=SENDER|56=TARGET|34=1|10=123|
8=FIX.4.4|9=56|35=D|49=SENDER|56=TARGET|34=1|10=123|
8=FIX.4.4|9=56|35=D|49=SENDER|56=TARGET|34=1|10=123|
8=FIX.4.4|9=56|35=D|49=SENDER|56=TARGET|34=1|10=123|
8=FIX.4.4|9=56|35=D|49=SENDER|56=TARGET|34=1|10=123|
8=FIX.4.4|9=56|35=D|49=SENDER|56=TARGET|34=1|10=123|
8=FIX.4.4|9=56|35=D|49=SENDER|56=TARGET|34=1|10=123|
8=FIX.4.4|9=56|35=D|49=SENDER|56=TARGET|34=1|10=123|
8=FIX.4.4|9=56|35=D|49=SENDER|56=TARGET|34=1|10=123|
8=FIX.4.4|9=56|35=D|49=SENDER|56=TARGET|34=1|10=123|
8=FIX.4.4|9=56|35=D|49=SENDER|56=TARGET|34=1|10=123|
8=FIX.4.4|9=56|35=D|49=SENDER|56=TARGET|34=1|10=123|
8=FIX.4.4|9=56|35=D|49=SENDER|56=TARGET|34=1|10=123|
8=FIX.4.4|9=56|35=D|49=SENDER|56=TARGET|34=1|10=123|
8=FIX.4.4|9=56|35=D|49=SENDER|56=TARGET|34=1|10=123|
8=FIX.4.4|9=56|35=D|49=SENDER|56=TARGET|34=1|10=123|
8=FIX.4.4|9=56|35=D|49=SENDER|56=TARGET|34=1|10=123|
8=FIX.4.4|9=56|35=D|49=SENDER|56=TARGET|34=1|10=123|
8=FIX.4.4|9=56|35=D|49=SENDER|56=TARGET|34=1|10=123|
8=FIX.4.4|9=56|35=D|49=SENDER|56=TARGET|34=1|10=123|
8=FIX.4.4|9=56|35=D|49=SENDER|56=TARGET|34=1|10=123|
8=FIX.4.4|9=56|35=D|49=SENDER|56=TARGET|34=1|10=123|
8=FIX.4.4|9=56|35=D|49=SENDER|56=TARGET|34=1|10=123|
8=FIX.4.4|9=56|35=D|49=SENDER|56=TARGET|34=1|10=123|
8=FIX.4.4|9=56|35=D|49=SENDER|56=TARGET|34=1|10=123|
8=FIX.4.4|9=56|35=D|49=SENDER|56=TARGET|34=1|10=123|
8=FIX.4.4|9=56|35=D|49=SENDER|56=TARGET|34=1|10=123|
8=FIX.4.4|9=56|35=D|49=SENDER|56=TARGET|34=1|10=123|
8=FIX.4.4|9=56|35=D|49=SENDER|56=TARGET|34=1|10=123|
8=FIX.4.4|9=56|35=D|49=SENDER|56=TARGET|34=1|10=123|
8=FIX.4.4|9=56|35=D|49=SENDER|56=TARGET|34=1|10=123|
8=FIX.4.4|9=56|35=D|49=SENDER|56=TARGET|34=1|10=123|
8=FIX.4.4|9=56|35=D|49=SENDER|56=TARGET|34=1|10=123|
8=FIX.4.4|9=56|35=D|49=SENDER|56=TARGET|34=1|10=123|
8=FIX.4.4|9=56|35=D|49=SENDER|56=TARGET|34=1|10=123|
8=FIX.4.4|9=56|35=D|49=SENDER|56=TARGET|34=1|10=123|
8=FIX.4.4|9=56|35=D|49=SENDER|56=TARGET|34=1|10=123|
8=FIX.4.4|9=56|35=D|49=SENDER|56=TARGET|34=1|10=123|
8=FIX.4.4|9=56|35=D|49=SENDER|56=TARGET|34=1|10=123|
8=FIX.4.4|9=56|35=D|49=SENDER|56=TARGET|34=1|10=123|
8=FIX.4.4|9=56|35=D|49=SENDER|56=TARGET|34=1|10=123|
8=FIX.4.4|9=56|35=D|49=SENDER|56=TARGET|34=1|10=123|
8=FIX.4.4|9=56|35=D|49=SENDER|56=TARGET|34=1|10=123|
8=FIX.4.4|9=56|35=D|49=SENDER|56=TARGET|34=1|10=123|
8=FIX.4.4|9=56|35=D|49=SENDER|56=TARGET|34=1|10=123|
8=FIX.4.4|9=56|35=D|49=SENDER|56=TARGET|34=1|10=123|
8=FIX.4.4|9=56|35=D|49=SENDER|56=TARGET|34=1|10=123|
8=FIX.4.4|9=56|35=D|49=SENDER|56=TARGET|34=1|10=123|
8=FIX.4.4|9=56|35=D|49=SENDER|56=TARGET|34=1|10=123|
8=FIX.4.4|9=56|35=D|49=SENDER|56=TARGET|34=1|10=123|
8=FIX.4.4|9=56|35=D|49=SENDER|56=TARGET|34=1|10=123|
8=FIX.4.4|9=56|35=D|49=SENDER|56=TARGET|34=1|10=123|
8=FIX.4.4|9=56|35=D|49=SENDER|56=TARGET|34=1|10=123|
8=FIX.4.4|9=56|35=D|49=SENDER|56=TARGET|34=1|10=123|
8=FIX.4.4|9=56|35=D|49=SENDER|56=TARGET|34=1|10=123|
8=FIX.4.4|9=56|35=D|49=SENDER|56=TARGET|34=1|10=123|
8=FIX.4.4|9=56|35=D|49=SENDER|56=TARGET|34=1|10=123|
8=FIX.4.4|9=56|35=D|49=SENDER|56=TARGET|34=1|10=123|
8=FIX.4.4|9=56|35=D|49=SENDER|56=TARGET|34=1|10=123|
8=FIX.4.4|9=56|35=D|49=SENDER|56=TARGET|34=1|10=123|
8=FIX.4.4|9=56|35=D|49=SENDER|56=TARGET|34=1|10=123|
8=FIX.4.4|9=56|35=D|49=SENDER|56=TARGET|34=1|10=123|
8=FIX.4.4|9=56|35=D|49=SENDER|56=TARGET|34=1|10=123|
8=FIX.4.4|9=56|35=D|49=SENDER|56=TARGET|34=1|10=123|
8=FIX.4.4|9=56|35=D|49=SENDER|56=TARGET|34=1|10=123|
8=FIX.4.4|9=56|35=D|49=SENDER|56=TARGET|34=1|10=123|
8=FIX.4.4|9=56|35=D|49=SENDER|56=TARGET|34=1|10=123|
8=FIX.4.4|9=56|35=D|49=SENDER|56=TARGET|34=1|10=123|
8=FIX.4.4|9=56|35=D|49=SENDER|56=TARGET|34=1|10=123|
8=FIX.4.4|9=56|35=D|49=SENDER|56=TARGET|34=1|10=123|
8=FIX.4.4|9=56|35=D|49=SENDER|56=TARGET|34=1|10=123|
8=FIX.4.4|9=56|35=D|49=SENDER|56=TARGET|34=1|10=123|
8=FIX.4.4|9=56|35=D|49=SENDER|56=TARGET|34=1|10=123|
8=FIX.4.4|9=56|35=D|49=SENDER|56=TARGET|34=1|10=123|
8=FIX.4.4|9=56|35=D|49=SENDER|56=TARGET|34=1|10=123|
8=FIX.4.4|9=56|35=D|49=SENDER|56=TARGET|34=1|10=123|
8=FIX.4.4|9=56|35=D|49=SENDER|56=TARGET|34=1|10=123|
8=FIX.4.4|9=56|35=D|49=SENDER|56=TARGET|34=1|10=123|
8=FIX.4.4|9=56|35=D|49=SENDER|56=TARGET|34=1|10=123|
8=FIX.4.4|9=56|35=D|49=SENDER|56=TARGET|34=1|10=123|
8=FIX.4.4|9=56|35=D|49=SENDER|56=TARGET|34=1|10=123|
8=FIX.4.4|9=56|35=D|49=SENDER|56=TARGET|34=1|10=123|
8=FIX.4.4|9=56|35=D|49=SENDER|56=TARGET|34=1|10=123|
8=FIX.4.4|9=56|35=D|49=SENDER|56=TARGET|34=1|10=123|
8=FIX.4.4|9=56|35=D|49=SENDER|56=TARGET|34=1|10=123|
8=FIX.4.4|9=56|35=D|49=SENDER|56=TARGET|34=1|10=123|
8=FIX.4.4|9=56|35=D|49=SENDER|56=TARGET|34=1|10=123|
8=FIX.4.4|9=56|35=D|49=SENDER|56=TARGET|34=1|10=123|
8=FIX.4.4|9=56|35=D|49=SENDER|56=TARGET|34=1|10=123|
8=FIX.4.4|9=56|35=D|49=SENDER|56=TARGET|34=1|10=123|
8=FIX.4.4|9=56|35=D|49=SENDER|56=TARGET|34=1|10=123|
8=FIX.4.4|9=56|35=D|49=SENDER|56=TARGET|34=1|10=123|
8=FIX.4.4|9=56|35=D|49=SENDER|56=TARGET|34=1|10=123|
8=FIX.4.4|9=56|35=D|49=SENDER|56=TARGET|34=1|10=123|
8=FIX.4.4|9=56|35=D|49=SENDER|56=TARGET|34=1|10=123|
8=FIX.4.4|9=56|35=D|49=SENDER|56=TARGET|34=1|10=123|
8=FIX.4.4|9=56|35=D|49=SENDER|56=TARGET|34=1|10=123|
8=FIX.4.4|9=56|35=D|49=SENDER|56=TARGET|34=1|10=123|
8=FIX.4.4|9=56|35=D|49=SENDER|56=TARGET|34=1|10=123|
8=FIX.4.4|9=56|35=D|49=SENDER|56=TARGET|34=1|10=123|
8=FIX.4.4|9=56|35=D|49=SENDER|56=TARGET|34=1|10=123|
8=FIX.4.4|9=56|35=D|49=SENDER|56=TARGET|34=1|10=123|
8=FIX.4.4|9=56|35=D|49=SENDER|56=TARGET|34=1|10=123|
8=FIX.4.4|9=56|35=D|49=SENDER|56=TARGET|34=1|10=123|
8=FIX.4.4|9=56|35=D|49=SENDER|56=TARGET|34=1|10=123|
8=FIX.4.4|9=56|35=D|49=SENDER|56=TARGET|34=1|10=123|
8=FIX.4.4|9=56|35=D|49=SENDER|56=TARGET|34=1|10=123|
8=FIX.4.4|9=56|35=D|49=SENDER|56=TARGET|34=1|10=123|
8=FIX.4.4|9=56|35=D|49=SENDER|56=TARGET|34=1|10=123|
8=FIX.4.4|9=56|35=D|49=SENDER|56=TARGET|34=1|10=123|
8=FIX.4.4|9=56|35=D|49=SENDER|56=TARGET|34=1|10=123|
8=FIX.4.4|9=56|35=D|49=SENDER|56=TARGET|34=1|10=123|
8=FIX.4.4|9=56|35=D|49=SENDER|56=TARGET|34=1|10=123|
8=FIX.4.4|9=56|35=D|49=SENDER|56=TARGET|34=1|10=123|
8=FIX.4.4|9=56|35=D|49=SENDER|56=TARGET|34=1|10=123|
8=FIX.4.4|9=56|35=D|49=SENDER|56=TARGET|34=1|10=123|
8=FIX.4.4|9=56|35=D|49=SENDER|56=TARGET|34=1|10=123|
8=FIX.4.4|9=56|35=D|49=SENDER|56=TARGET|34=1|10=123|
8=FIX.4.4|9=56|35=D|49=SENDER|56=TARGET|34=1|10=123|
8=FIX.4.4|9=56|35=D|49=SENDER|56=TARGET|34=1|10=123|
8=FIX.4.4|9=56|35=D|49=SENDER|56=TARGET|34=1|10=123|
8=FIX.4.4|9=56|35=D|49=SENDER|56=TARGET|34=1|10=123|
8=FIX.4.4|9=56|35=D|49=SENDER|56=TARGET|34=1|10=123|
8=FIX.4.4|9=56|35=D|49=SENDER|56=TARGET|34=1|10=123|
8=FIX.4.4|9=56|35=D|49=SENDER|56=TARGET|34=1|10=123|
8=FIX.4.4|9=56|35=D|49=SENDER|56=TARGET|34=1|10=123|
8=FIX.4.4|9=56|35=D|49=SENDER|56=TARGET|34=1|10=123|
8=FIX.4.4|9=56|35=D|49=SENDER|56=TARGET|34=1|10=123|
8=FIX.4.4|9=56|35=D|49=SENDER|56=TARGET|34=1|10=123|
8=FIX.4.4|9=56|35=D|49=SENDER|56=TARGET|34=1|10=123|
8=FIX.4.4|9=56|35=D|49=SENDER|56=TARGET|34=1|10=123|
8=FIX.4.4|9=56|35=D|49=SENDER|56=TARGET|34=1|10=123|
8=FIX.4.4|9=56|35=D|49=SENDER|56=TARGET|34=1|10=123|
8=FIX.4.4|9=56|35=D|49=SENDER|56=TARGET|34=1|10=123|
8=FIX.4.4|9=56|35=D|49=SENDER|56=TARGET|34=1|10=123|
8=FIX.4.4|9=56|35=D|49=SENDER|56=TARGET|34=1|10=123|
8=FIX.4.4|9=56|35=D|49=SENDER|56=TARGET|34=1|10=123|
8=FIX.4.4|9=56|35=D|49=SENDER|56=TARGET|34=1|10=123|
8=FIX.4.4|9=56|35=D|49=SENDER|56=TARGET|34=1|10=123|
8=FIX.4.4|9=56|35=D|49=SENDER|56=TARGET|34=1|10=123|
8=FIX.4.4|9=56|35=D|49=SENDER|56=TARGET|34=1|10=123|
8=FIX.4.4|9=56|35=D|49=SENDER|56=TARGET|34=1|10=123|
8=FIX.4.4|9=56|35=D|49=SENDER|56=TARGET|34=1|10=123|
8=FIX.4.4|9=56|35=D|49=SENDER|56=TARGET|34=1|10=123|
8=FIX.4.4|9=56|35=D|49=SENDER|56=TARGET|34=1|10=123|
8=FIX.4.4|9=56|35=D|49=SENDER|56=TARGET|34=1|10=123|
8=FIX.4.4|9=56|35=D|49=SENDER|56=TARGET|34=1|10=123|
8=FIX.4.4|9=56|35=D|49=SENDER|56=TARGET|34=1|10=123|
8=FIX.4.4|9=56|35=D|49=SENDER|56=TARGET|34=1|10=123|
8=FIX.4.4|9=56|35=D|49=SENDER|56=TARGET|34=1|10=123|
8=FIX.4.4|9=56|35=D|49=SENDER|56=TARGET|34=1|10=123|
8=FIX.4.4|9=56|35=D|49=SENDER|56=TARGET|34=1|10=123|
8=FIX.4.4|9=56|35=D|49=SENDER|56=TARGET|34=1|10=123|
8=FIX.4.4|9=56|35=D|49=SENDER|56=TARGET|34=1|10=123|
8=FIX.4.4|9=56|35=D|49=SENDER|56=TARGET|34=1|10=123|
8=FIX.4.4|9=56|35=D|49=SENDER|56=TARGET|34=1|10=123|
8=FIX.4.4|9=56|35=D|49=SENDER|56=TARGET|34=1|10=123|
8=FIX.4.4|9=56|35=D|49=SENDER|56=TARGET|34=1|10=123|
8=FIX.4.4|9=56|35=D|49=SENDER|56=TARGET|34=1|10=123|
8=FIX.4.4|9=56|35=D|49=SENDER|56=TARGET|34=1|10=123|
8=FIX.4.4|9=56|35=D|49=SENDER|56=TARGET|34=1|10=123|
8=FIX.4.4|9=56|35=D|49=SENDER|56=TARGET|34=1|10=123|
8=FIX.4.4|9=56|35=D|49=SENDER|56=TARGET|34=1|10=123|
8=FIX.4.4|9=56|35=D|49=SENDER|56=TARGET|34=1|10=123|
8=FIX.4.4|9=56|35=D|49=SENDER|56=TARGET|34=1|10=123|
8=FIX.4.4|9=56|35=D|49=SENDER|56=TARGET|34=1|10=123|
8=FIX.4.4|9=56|35=D|49=SENDER|56=TARGET|34=1|10=123|
8=FIX.4.4|9=56|35=D|49=SENDER|56=TARGET|34=1|10=123|
8=FIX.4.4|9=56|35=D|49=SENDER|56=TARGET|34=1|10=123|
8=FIX.4.4|9=56|35=D|49=SENDER|56=TARGET|34=1|10=123|
8=FIX.4.4|9=56|35=D|49=SENDER|56=TARGET|34=1|10=123|
8=FIX.4.4|9=56|35=D|49=SENDER|56=TARGET|34=1|10=123|
8=FIX.4.4|9=56|35=D|49=SENDER|56=TARGET|34=1|10=123|
8=FIX.4.4|9=56|35=D|49=SENDER|56=TARGET|34=1|10=123|
8=FIX.4.4|9=56|35=D|49=SENDER|56=TARGET|34=1|10=123|
8=FIX.4.4|9=56|35=D|49=SENDER|56=TARGET|34=1|10=123|
8=FIX.4.4|9=56|35=D|49=SENDER|56=TARGET|34=1|10=123|
8=FIX.4.4|9=56|35=D|49=SENDER|56=TARGET|34=1|10=123|
8=FIX.4.4|9=56|35=D|49=SENDER|56=TARGET|34=1|10=123|
8=FIX.4.4|9=56|35=D|49=SENDER|56=TARGET|34=1|10=123|
8=FIX.4.4|9=56|35=D|49=SENDER|56=TARGET|34=1|10=123|
8=FIX.4.4|9=56|35=D|49=SENDER|56=TARGET|34=1|10=123|
8=FIX.4.4|9=56|35=D|49=SENDER|56=TARGET|34=1|10=123|
8=FIX.4.4|9=56|35=D|49=SENDER|56=TARGET|34=1|10=123|
8=FIX.4.4|9=56|35=D|49=SENDER|56=TARGET|34=1|10=123|
8=FIX.4.4|9=56|35=D|49=SENDER|56=TARGET|34=1|10=123|
8=FIX.4.4|9=56|35=D|49=SENDER|56=TARGET|34=1|10=123|
8=FIX.4.4|9=56|35=D|49=SENDER|56=TARGET|34=1|10=123|
8=FIX.4.4|9=56|35=D|49=SENDER|56=TARGET|34=1|10=123|
8=FIX.4.4|9=56|35=D|49=SENDER|56=TARGET|34=1|10=123|
8=FIX.4.4|9=56|35=D|49=SENDER|56=TARGET|34=1|10=123|
8=FIX.4.4|9=56|35=D|49=SENDER|56=TARGET|34=1|10=123|
8=FIX.4.4|9=56|35=D|49=SENDER|56=TARGET|34=1|10=123|
8=FIX.4.4|9=56|35=D|49=SENDER|56=TARGET|34=1|10=123|
8=FIX.4.4|9=56|35=D|49=SENDER|56=TARGET|34=1|10=123|
8=FIX.4.4|9=56|35=D|49=SENDER|56=TARGET|34=1|10=123|
8=FIX.4.4|9=56|35=D|49=SENDER|56=TARGET|34=1|10=123|
8=FIX.4.4|9=56|35=D|49=SENDER|56=TARGET|34=1|10=123|
8=FIX.4.4|9=56|35=D|49=SENDER|56=TARGET|34=1|10=123|
8=FIX.4.4|9=56|35=D|49=SENDER|56=TARGET|34=1|10=123|
8=FIX.4.4|9=56|35=D|49=SENDER|56=TARGET|34=1|10=123|
8=FIX.4.4|9=56|35=D|49=SENDER|56=TARGET|34=1|10=123|
8=FIX.4.4|9=56|35=D|49=SENDER|56=TARGET|34=1|10=123|
8=FIX.4.4|9=56|35=D|49=SENDER|56=TARGET|34=1|10=123|
8=FIX.4.4|9=56|35=D|49=SENDER|56=TARGET|34=1|10=123|
8=FIX.4.4|9=56|35=D|49=SENDER|56=TARGET|34=1|10=123|
8=FIX.4.4|9=56|35=D|49=SENDER|56=TARGET|34=1|10=123|
8=FIX.4.4|9=56|35=D|49=SENDER|56=TARGET|34=1|10=123|
8=FIX.4.4|9=56|35=D|49=SENDER|56=TARGET|34=1|10=123|
8=FIX.4.4|9=56|35=D|49=SENDER|56=TARGET|34=1|10=123|
8=FIX.4.4|9=56|35=D|49=SENDER|56=TARGET|34=1|10=123|
8=FIX.4.4|9=56|35=D|49=SENDER|56=TARGET|34=1|10=123|
8=FIX.4.4|9=56|35=D|49=SENDER|56=TARGET|34=1|10=123|
8=FIX.4.4|9=56|35=D|49=SENDER|56=TARGET|34=1|10=123|
8=FIX.4.4|9=56|35=D|49=SENDER|56=TARGET|34=1|10=123|
8=FIX.4.4|9=56|35=D|49=SENDER|56=TARGET|34=1|10=123|
8=FIX.4.4|9=56|35=D|49=SENDER|56=TARGET|34=1|10=123|
8=FIX.4.4|9=56|35=D|49=SENDER|56=TARGET|34=1|10=123|
8=FIX.4.4|9=56|35=D|49=SENDER|56=TARGET|34=1|10=123|
8=FIX.4.4|9=56|35=D|49=SENDER|56=TARGET|34=1|10=123|
8=FIX.4.4|9=56|35=D|49=SENDER|56=TARGET|34=1|10=123|
8=FIX.4.4|9=56|35=D|49=SENDER|56=TARGET|34=1|10=123|
8=FIX.4.4|9=56|35=D|49=SENDER|56=TARGET|34=1|10=123|
8=FIX.4.4|9=56|35=D|49=SENDER|56=TARGET|34=1|10=123|
8=FIX.4.4|9=56|35=D|49=SENDER|56=TARGET|34=1|10=123|
8=FIX.4.4|9=56|35=D|49=SENDER|56=TARGET|34=1|10=123|
8=FIX.4.4|9=56|35=D|49=SENDER|56=TARGET|34=1|10=123|
8=FIX.4.4|9=56|35=D|49=SENDER|56=TARGET|34=1|10=123|
8=FIX.4.4|9=56|35=D|49=SENDER|56=TARGET|34=1|10=123|
8=FIX.4.4|9=56|35=D|49=SENDER|56=TARGET|34=1|10=123|
8=FIX.4.4|9=56|35=D|49=SENDER|56=TARGET|34=1|10=123|
8=FIX.4.4|9=56|35=D|49=SENDER|56=TARGET|34=1|10=123|
8=FIX.4.4|9=56|35=D|49=SENDER|56=TARGET|34=1|10=123|
8=FIX.4.4|9=56|35=D|49=SENDER|56=TARGET|34=1|10=123|
8=FIX.4.4|9=56|35=D|49=SENDER|56=TARGET|34=1|10=123|
8=FIX.4.4|9=56|35=D|49=SENDER|56=TARGET|34=1|10=123|
8=FIX.4.4|9=56|35=D|49=SENDER|56=TARGET|34=1|10=123|
8=FIX.4.4|9=56|35=D|49=SENDER|56=TARGET|34=1|10=123|
8=FIX.4.4|9=56|35=D|49=SENDER|56=TARGET|34=1|10=123|
8=FIX.4.4|9=56|35=D|49=SENDER|56=TARGET|34=1|10=123|
8=FIX.4.4|9=56|35=D|49=SENDER|56=TARGET|34=1|10=123|
8=FIX.4.4|9=56|35=D|49=SENDER|56=TARGET|34=1|10=123|
8=FIX.4.4|9=56|35=D|49=SENDER|56=TARGET|34=1|10=123|
8=FIX.4.4|9=56|35=D|49=SENDER|56=TARGET|34=1|10=123|
8=FIX.4.4|9=56|35=D|49=SENDER|56=TARGET|34=1|10=123|
8=FIX.4.4|9=56|35=D|49=SENDER|56=TARGET|34=1|10=123|
8=FIX.4.4|9=56|35=D|49=SENDER|56=TARGET|34=1|10=123|
8=FIX.4.4|9=56|35=D|49=SENDER|56=TARGET|34=1|10=123|
8=FIX.4.4|9=56|35=D|49=SENDER|56=TARGET|34=1|10=123|
8=FIX.4.4|9=56|35=D|49=SENDER|56=TARGET|34=1|10=123|
8=FIX.4.4|9=56|35=D|49=SENDER|56=TARGET|34=1|10=123|
8=FIX.4.4|9=56|35=D|49=SENDER|56=TARGET|34=1|10=123|
8=FIX.4.4|9=56|35=D|49=SENDER|56=TARGET|34=1|10=123|
8=FIX.4.4|9=56|35=D|49=SENDER|56=TARGET|34=1|10=123|
8=FIX.4.4|9=56|35=D|49=SENDER|56=TARGET|34=1|10=123|
8=FIX.4.4|9=56|35=D|49=SENDER|56=TARGET|34=1|10=123|
8=FIX.4.4|9=56|35=D|49=SENDER|56=TARGET|34=1|10=123|
8=FIX.4.4|9=56|35=D|49=SENDER|56=TARGET|34=1|10=123|
8=FIX.4.4|9=56|35=D|49=SENDER|56=TARGET|34=1|10=123|
8=FIX.4.4|9=56|35=D|49=SENDER|56=TARGET|34=1|10=123|
8=FIX.4.4|9=56|35=D|49=SENDER|56=TARGET|34=1|10=123|
8=FIX.4.4|9=56|35=D|49=SENDER|56=TARGET|34=1|10=123|
8=FIX.4.4|9=56|35=D|49=SENDER|56=TARGET|34=1|10=123|
8=FIX.4.4|9=56|35=D|49=SENDER|56=TARGET|34=1|10=123|
8=FIX.4.4|9=56|35=D|49=SENDER|56=TARGET|34=1|10=123|
8=FIX.4.4|9=56|35=D|49=SENDER|56=TARGET|34=1|10=123|
8=FIX.4.4|9=56|35=D|49=SENDER|56=TARGET|34=1|10=123|
8=FIX.4.4|9=56|35=D|49=SENDER|56=TARGET|34=1|10=123|
8=FIX.4.4|9=56|35=D|49=SENDER|56=TARGET|34=1|10=123|
8=FIX.4.4|9=56|35=D|49=SENDER|56=TARGET|34=1|10=123|
8=FIX.4.4|9=56|35=D|49=SENDER|56=TARGET|34=1|10=123|
8=FIX.4.4|9=56|35=D|49=SENDER|56=TARGET|34=1|10=123|
8=FIX.4.4|9=56|35=D|49=SENDER|56=TARGET|34=1|10=123|
8=FIX.4.4|9=56|35=D|49=SENDER|56=TARGET|34=1|10=123|
8=FIX.4.4|9=56|35=D|49=SENDER|56=TARGET|34=1|10=123|
8=FIX.4.4|9=56|35=D|49=SENDER|56=TARGET|34=1|10=123|
8=FIX.4.4|9=56|35=D|49=SENDER|56=TARGET|34=1|10=123|
8=FIX.4.4|9=56|35=D|49=SENDER|56=TARGET|34=1|10=123|
8=FIX.4.4|9=56|35=D|49=SENDER|56=TARGET|34=1|10=123|
8=FIX.4.4|9=56|35=D|49=SENDER|56=TARGET|34=1|10=123|
8=FIX.4.4|9=56|35=D|49=SENDER|56=TARGET|34=1|10=123|
8=FIX.4.4|9=56|35=D|49=SENDER|56=TARGET|34=1|10=123|
8=FIX.4.4|9=56|35=D|49=SENDER|56=TARGET|34=1|10=123|
8=FIX.4.4|9=56|35=D|49=SENDER|56=TARGET|34=1|10=123|
8=FIX.4.4|9=56|35=D|49=SENDER|56=TARGET|34=1|10=123|
8=FIX.4.4|9=56|35=D|49=SENDER|56=TARGET|34=1|10=123|
8=FIX.4.4|9=56|35=D|49=SENDER|56=TARGET|34=1|10=123|
8=FIX.4.4|9=56|35=D|49=SENDER|56=TARGET|34=1|10=123|
8=FIX.4.4|9=56|35=D|49=SENDER|56=TARGET|34=1|10=123|
8=FIX.4.4|9=56|35=D|49=SENDER|56=TARGET|34=1|10=123|
8=FIX.4.4|9=56|35=D|49=SENDER|56=TARGET|34=1|10=123|
8=FIX.4.4|9=56|35=D|49=SENDER|56=TARGET|34=1|10=123|
8=FIX.4.4|9=56|35=D|49=SENDER|56=TARGET|34=1|10=123|
8=FIX.4.4|9=56|35=D|49=SENDER|56=TARGET|34=1|10=123|
8=FIX.4.4|9=56|35=D|49=SENDER|56=TARGET|34=1|10=123|
8=FIX.4.4|9=56|35=D|49=SENDER|56=TARGET|34=1|10=123|
8=FIX.4.4|9=56|35=D|49=SENDER|56=TARGET|34=1|10=123|
8=FIX.4.4|9=56|35=D|49=SENDER|56=TARGET|34=1|10=123|
8=FIX.4.4|9=56|35=D|49=SENDER|56=TARGET|34=1|10=123|
8=FIX.4.4|9=56|35=D|49=SENDER|56=TARGET|34=1|10=123|
8=FIX.4.4|9=56|35=D|49=SENDER|56=TARGET|34=1|10=123|
8=FIX.4.4|9=56|35=D|49=SENDER|56=TARGET|34=1|10=123|
8=FIX.4.4|9=56|35=D|49=SENDER|56=TARGET|34=1|10=123|
8=FIX.4.4|9=56|35=D|49=SENDER|56=TARGET|34=1|10=123|
8=FIX.4.4|9=56|35=D|49=SENDER|56=TARGET|34=1|10=123|
8=FIX.4.4|9=56|35=D|49=SENDER|56=TARGET|34=1|10=123|
8=FIX.4.4|9=56|35=D|49=SENDER|56=TARGET|34=1|10=123|
8=FIX.4.4|9=56|35=D|49=SENDER|56=TARGET|34=1|10=123|
8=FIX.4.4|9=56|35=D|49=SENDER|56=TARGET|34=1|10=123|
8=FIX.4.4|9=56|35=D|49=SENDER|56=TARGET|34=1|10=123|
8=FIX.4.4|9=56|35=D|49=SENDER|56=TARGET|34=1|10=123|
8=FIX.4.4|9=56|35=D|49=SENDER|56=TARGET|34=1|10=123|
8=FIX.4.4|9=56|35=D|49=SENDER|56=TARGET|34=1|10=123|
8=FIX.4.4|9=56|35=D|49=SENDER|56=TARGET|34=1|10=123|
8=FIX.4.4|9=56|35=D|49=SENDER|56=TARGET|34=1|10=123|
8=FIX.4.4|9=56|35=D|49=SENDER|56=TARGET|34=1|10=123|
8=FIX.4.4|9=56|35=D|49=SENDER|56=TARGET|34=1|10=123|
8=FIX.4.4|9=56|35=D|49=SENDER|56=TARGET|34=1|10=123|
8=FIX.4.4|9=56|35=D|49=SENDER|56=TARGET|34=1|10=123|
8=FIX.4.4|9=56|35=D|49=SENDER|56=TARGET|34=1|10=123|
8=FIX.4.4|9=56|35=D|49=SENDER|56=TARGET|34=1|10=123|
8=FIX.4.4|9=56|35=D|49=SENDER|56=TARGET|34=1|10=123|
8=FIX.4.4|9=56|35=D|49=SENDER|56=TARGET|34=1|10=123|
8=FIX.4.4|9=56|35=D|49=SENDER|56=TARGET|34=1|10=123|
8=FIX.4.4|9=56|35=D|49=SENDER|56=TARGET|34=1|10=123|
8=FIX.4.4|9=56|35=D|49=SENDER|56=TARGET|34=1|10=123|
8=FIX.4.4|9=56|35=D|49=SENDER|56=TARGET|34=1|10=123|
8=FIX.4.4|9=56|35=D|49=SENDER|56=TARGET|34=1|10=123|
8=FIX.4.4|9=56|35=D|49=SENDER|56=TARGET|34=1|10=123|
8=FIX.4.4|9=56|35=D|49=SENDER|56=TARGET|34=1|10=123|
8=FIX.4.4|9=56|35=D|49=SENDER|56=TARGET|34=1|10=123|
8=FIX.4.4|9=56|35=D|49=SENDER|56=TARGET|34=1|10=123|
8=FIX.4.4|9=56|35=D|49=SENDER|56=TARGET|34=1|10=123|
8=FIX.4.4|9=56|35=D|49=SENDER|56=TARGET|34=1|10=123|
8=FIX.4.4|9=56|35=D|49=SENDER|56=TARGET|34=1|10=123|
8=FIX.4.4|9=56|35=D|49=SENDER|56=TARGET|34=1|10=123|
8=FIX.4.4|9=56|35=D|49=SENDER|56=TARGET|34=1|10=123|
8=FIX.4.4|9=56|35=D|49=SENDER|56=TARGET|34=1|10=123|
8=FIX.4.4|9=56|35=D|49=SENDER|56=TARGET|34=1|10=123|
8=FIX.4.4|9=56|35=D|49=SENDER|56=TARGET|34=1|10=123|
8=FIX.4.4|9=56|35=D|49=SENDER|56=TARGET|34=1|10=123|
8=FIX.4.4|9=56|35=D|49=SENDER|56=TARGET|34=1|10=123|
8=FIX.4.4|9=56|35=D|49=SENDER|56=TARGET|34=1|10=123|
8=FIX.4.4|9=56|35=D|49=SENDER|56=TARGET|34=1|10=123|
8=FIX.4.4|9=56|35=D|49=SENDER|56=TARGET|34=1|10=123|
8=FIX.4.4|9=56|35=D|49=SENDER|56=TARGET|34=1|10=123|
8=FIX.4.4|9=56|35=D|49=SENDER|56=TARGET|34=1|10=123|
8=FIX.4.4|9=56|35=D|49=SENDER|56=TARGET|34=1|10=123|
8=FIX.4.4|9=56|35=D|49=SENDER|56=TARGET|34=1|10=123|
8=FIX.4.4|9=56|35=D|49=SENDER|56=TARGET|34=1|10=123|
8=FIX.4.4|9=56|35=D|49=SENDER|56=TARGET|34=1|10=123|
8=FIX.4.4|9=56|35=D|49=SENDER|56=TARGET|34=1|10=123|
8=FIX.4.4|9=56|35=D|49=SENDER|56=TARGET|34=1|10=123|
8=FIX.4.4|9=56|35=D|49=SENDER|56=TARGET|34=1|10=123|
8=FIX.4.4|9=56|35=D|49=SENDER|56=TARGET|34=1|10=123|
8=FIX.4.4|9=56|35=D|49=SENDER|56=TARGET|34=1|10=123|
8=FIX.4.4|9=56|35=D|49=SENDER|56=TARGET|34=1|10=123|
8=FIX.4.4|9=56|35=D|49=SENDER|56=TARGET|34=1|10=123|
8=FIX.4.4|9=56|35=D|49=SENDER|56=TARGET|34=1|10=123|
8=FIX.4.4|9=56|35=D|49=SENDER|56=TARGET|34=1|10=123|
8=FIX.4.4|9=56|35=D|49=SENDER|56=TARGET|34=1|10=123|
8=FIX.4.4|9=56|35=D|49=SENDER|56=TARGET|34=1|10=123|
8=FIX.4.4|9=56|35=D|49=SENDER|56=TARGET|34=1|10=123|
8=FIX.4.4|9=56|35=D|49=SENDER|56=TARGET|34=1|10=123|
8=FIX.4.4|9=56|35=D|49=SENDER|56=TARGET|34=1|10=123|
8=FIX.4.4|9=56|35=D|49=SENDER|56=TARGET|34=1|10=123|
8=FIX.4.4|9=56|35=D|49=SENDER|56=TARGET|34=1|10=123|
8=FIX.4.4|9=56|35=D|49=SENDER|56=TARGET|34=1|10=123|
8=FIX.4.4|9=56|35=D|49=SENDER|56=TARGET|34=1|10=123|
8=FIX.4.4|9=56|35=D|49=SENDER|56=TARGET|34=1|10=123|
8=FIX.4.4|9=56|35=D|49=SENDER|56=TARGET|34=1|10=123|
8=FIX.4.4|9=56|35=D|49=SENDER|56=TARGET|34=1|10=123|
8=FIX.4.4|9=56|35=D|49=SENDER|56=TARGET|34=1|10=123|
8=FIX.4.4|9=56|35=D|49=SENDER|56=TARGET|34=1|10=123|
8=FIX.4.4|9=56|35=D|49=SENDER|56=TARGET|34=1|10=123|
8=FIX.4.4|9=56|35=D|49=SENDER|56=TARGET|34=1|10=123|
8=FIX.4.4|9=56|35=D|49=SENDER|56=TARGET|34=1|10=123|
8=FIX.4.4|9=56|35=D|49=SENDER|56=TARGET|34=1|10=123|
8=FIX.4.4|9=56|35=D|49=SENDER|56=TARGET|34=1|10=123|
8=FIX.4.4|9=56|35=D|49=SENDER|56=TARGET|34=1|10=123|
8=FIX.4.4|9=56|35=D|49=SENDER|56=TARGET|34=1|10=123|
8=FIX.4.4|9=56|35=D|49=SENDER|56=TARGET|34=1|10=123|
8=FIX.4.4|9=56|35=D|49=SENDER|56=TARGET|34=1|10=123|
8=FIX.4.4|9=56|35=D|49=SENDER|56=TARGET|34=1|10=123|
8=FIX.4.4|9=56|35=D|49=SENDER|56=TARGET|34=1|10=123|
8=FIX.4.4|9=56|35=D|49=SENDER|56=TARGET|34=1|10=123|
8=FIX.4.4|9=56|35=D|49=SENDER|56=TARGET|34=1|10=123|
8=FIX.4.4|9=56|35=D|49=SENDER|56=TARGET|34=1|10=123|
8=FIX.4.4|9=56|35=D|49=SENDER|56=TARGET|34=1|10=123|
8=FIX.4.4|9=56|35=D|49=SENDER|56=TARGET|34=1|10=123|
8=FIX.4.4|9=56|35=D|49=SENDER|56=TARGET|34=1|10=123|
8=FIX.4.4|9=56|35=D|49=SENDER|56=TARGET|34=1|10=123|
8=FIX.4.4|9=56|35=D|49=SENDER|56=TARGET|34=1|10=123|
8=FIX.4.4|9=56|35=D|49=SENDER|56=TARGET|34=1|10=123|
8=FIX.4.4|9=56|35=D|49=SENDER|56=TARGET|34=1|10=123|
8=FIX.4.4|9=56|35=D|49=SENDER|56=TARGET|34=1|10=123|
8=FIX.4.4|9=56|35=D|49=SENDER|56=TARGET|34=1|10=123|
8=FIX.4.4|9=56|35=D|49=SENDER|56=TARGET|34=1|10=123|
8=FIX.4.4|9=56|35=D|49=SENDER|56=TARGET|34=1|10=123|
8=FIX.4.4|9=56|35=D|49=SENDER|56=TARGET|34=1|10=123|
8=FIX.4.4|9=56|35=D|49=SENDER|56=TARGET|34=1|10=123|
8=FIX.4.4|9=56|35=D|49=SENDER|56=TARGET|34=1|10=123|
8=FIX.4.4|9=56|35=D|49=SENDER|56=TARGET|34=1|10=123|
8=FIX.4.4|9=56|35=D|49=SENDER|56=TARGET|34=1|10=123|
8=FIX.4.4|9=56|35=D|49=SENDER|56=TARGET|34=1|10=123|
8=FIX.4.4|9=56|35=D|49=SENDER|56=TARGET|34=1|10=123|
8=FIX.4.4|9=56|35=D|49=SENDER|56=TARGET|34=1|10=123|
8=FIX.4.4|9=56|35=D|49=SENDER|56=TARGET|34=1|10=123|
8=FIX.4.4|9=56|35=D|49=SENDER|56=TARGET|34=1|10=123|
8=FIX.4.4|9=56|35=D|49=SENDER|56=TARGET|34=1|10=123|
8=FIX.4.4|9=56|35=D|49=SENDER|56=TARGET|34=1|10=123|
8=FIX.4.4|9=56|35=D|49=SENDER|56=TARGET|34=1|10=123|
8=FIX.4.4|9=56|35=D|49=SENDER|56=TARGET|34=1|10=123|
8=FIX.4.4|9=56|35=D|49=SENDER|56=TARGET|34=1|10=123|
8=FIX.4.4|9=56|35=D|49=SENDER|56=TARGET|34=1|10=123|
8=FIX.4.4|9=56|35=D|49=SENDER|56=TARGET|34=1|10=123|
8=FIX.4.4|9=56|35=D|49=SENDER|56=TARGET|34=1|10=123|
8=FIX.4.4|9=56|35=D|49=SENDER|56=TARGET|34=1|10=123|
8=FIX.4.4|9=56|35=D|49=SENDER|56=TARGET|34=1|10=123|
8=FIX.4.4|9=56|35=D|49=SENDER|56=TARGET|34=1|10=123|
8=FIX.4.4|9=56|35=D|49=SENDER|56=TARGET|34=1|10=123|
8=FIX.4.4|9=56|35=D|49=SENDER|56=TARGET|34=1|10=123|
8=FIX.4.4|9=56|35=D|49=SENDER|56=TARGET|34=1|10=123|
8=FIX.4.4|9=56|35=D|49=SENDER|56=TARGET|34=1|10=123|
8=FIX.4.4|9=56|35=D|49=SENDER|56=TARGET|34=1|10=123|
8=FIX.4.4|9=56|35=D|49=SENDER|56=TARGET|34=1|10=123|
8=FIX.4.4|9=56|35=D|49=SENDER|56=TARGET|34=1|10=123|
8=FIX.4.4|9=56|35=D|49=SENDER|56=TARGET|34=1|10=123|
8=FIX.4.4|9=56|35=D|49=SENDER|56=TARGET|34=1|10=123|
8=FIX.4.4|9=56|35=D|49=SENDER|56=TARGET|34=1|10=123|
8=FIX.4.4|9=56|35=D|49=SENDER|56=TARGET|34=1|10=123|
8=FIX.4.4|9=56|35=D|49=SENDER|56=TARGET|34=1|10=123|
8=FIX.4.4|9=56|35=D|49=SENDER|56=TARGET|34=1|10=123|
8=FIX.4.4|9=56|35=D|49=SENDER|56=TARGET|34=1|10=123|
8=FIX.4.4|9=56|35=D|49=SENDER|56=TARGET|34=1|10=123|
8=FIX.4.4|9=56|35=D|49=SENDER|56=TARGET|34=1|10=123|
8=FIX.4.4|9=56|35=D|49=SENDER|56=TARGET|34=1|10=123|
8=FIX.4.4|9=56|35=D|49=SENDER|56=TARGET|34=1|10=123|
8=FIX.4.4|9=56|35=D|49=SENDER|56=TARGET|34=1|10=123|
8=FIX.4.4|9=56|35=D|49=SENDER|56=TARGET|34=1|10=123|
8=FIX.4.4|9=56|35=D|49=SENDER|56=TARGET|34=1|10=123|
8=FIX.4.4|9=56|35=D|49=SENDER|56=TARGET|34=1|10=123|
8=FIX.4.4|9=56|35=D|49=SENDER|56=TARGET|34=1|10=123|
8=FIX.4.4|9=56|35=D|49=SENDER|56=TARGET|34=1|10=123|
8=FIX.4.4|9=56|35=D|49=SENDER|56=TARGET|34=1|10=123|
8=FIX.4.4|9=56|35=D|49=SENDER|56=TARGET|34=1|10=123|
8=FIX.4.4|9=56|35=D|49=SENDER|56=TARGET|34=1|10=123|
8=FIX.4.4|9=56|35=D|49=SENDER|56=TARGET|34=1|10=123|
8=FIX.4.4|9=56|35=D|49=SENDER|56=TARGET|34=1|10=123|
8=FIX.4.4|9=56|35=D|49=SENDER|56=TARGET|34=1|10=123|
8=FIX.4.4|9=56|35=D|49=SENDER|56=TARGET|34=1|10=123|
8=FIX.4.4|9=56|35=D|49=SENDER|56=TARGET|34=1|10=123|
8=FIX.4.4|9=56|35=D|49=SENDER|56=TARGET|34=1|10=123|
8=FIX.4.4|9=56|35=D|49=SENDER|56=TARGET|34=1|10=123|
8=FIX.4.4|9=56|35=D|49=SENDER|56=TARGET|34=1|10=123|
8=FIX.4.4|9=56|35=D|49=SENDER|56=TARGET|34=1|10=123|
8=FIX.4.4|9=56|35=D|49=SENDER|56=TARGET|34=1|10=123|
8=FIX.4.4|9=56|35=D|49=SENDER|56=TARGET|34=1|10=123|
8=FIX.4.4|9=56|35=D|49=SENDER|56=TARGET|34=1|10=123|
8=FIX.4.4|9=56|35=D|49=SENDER|56=TARGET|34=1|10=123|
8=FIX.4.4|9=56|35=D|49=SENDER|56=TARGET|34=1|10=123|
8=FIX.4.4|9=56|35=D|49=SENDER|56=TARGET|34=1|10=123|
8=FIX.4.4|9=56|35=D|49=SENDER|56=TARGET|34=1|10=123|
8=FIX.4.4|9=56|35=D|49=SENDER|56=TARGET|34=1|10=123|
8=FIX.4.4|9=56|35=D|49=SENDER|56=TARGET|34=1|10=123|
8=FIX.4.4|9=56|35=D|49=SENDER|56=TARGET|34=1|10=123|
8=FIX.4.4|9=56|35=D|49=SENDER|56=TARGET|34=1|10=123|
8=FIX.4.4|9=56|35=D|49=SENDER|56=TARGET|34=1|10=123|
8=FIX.4.4|9=56|35=D|49=SENDER|56=TARGET|34=1|10=123|
8=FIX.4.4|9=56|35=D|49=SENDER|56=TARGET|34=1|10=123|
8=FIX.4.4|9=56|35=D|49=SENDER|56=TARGET|34=1|10=123|
8=FIX.4.4|9=56|35=D|49=SENDER|56=TARGET|34=1|10=123|
8=FIX.4.4|9=56|35=D|49=SENDER|56=TARGET|34=1|10=123|
8=FIX.4.4|9=56|35=D|49=SENDER|56=TARGET|34=1|10=123|
8=FIX.4.4|9=56|35=D|49=SENDER|56=TARGET|34=1|10=123|
8=FIX.4.4|9=56|35=D|49=SENDER|56=TARGET|34=1|10=123|
8=FIX.4.4|9=56|35=D|49=SENDER|56=TARGET|34=1|10=123|
8=FIX.4.4|9=56|35=D|49=SENDER|56=TARGET|34=1|10=123|
8=FIX.4.4|9=56|35=D|49=SENDER|56=TARGET|34=1|10=123|
8=FIX.4.4|9=56|35=D|49=SENDER|56=TARGET|34=1|10=123|
8=FIX.4.4|9=56|35=D|49=SENDER|56=TARGET|34=1|10=123|
8=FIX.4.4|9=56|35=D|49=SENDER|56=TARGET|34=1|10=123|
8=FIX.4.4|9=56|35=D|49=SENDER|56=TARGET|34=1|10=123|
8=FIX.4.4|9=56|35=D|49=SENDER|56=TARGET|34=1|10=123|
8=FIX.4.4|9=56|35=D|49=SENDER|56=TARGET|34=1|10=123|
8=FIX.4.4|9=56|35=D|49=SENDER|56=TARGET|34=1|10=123|
8=FIX.4.4|9=56|35=D|49=SENDER|56=TARGET|34=1|10=123|
8=FIX.4.4|9=56|35=D|49=SENDER|56=TARGET|34=1|10=123|
8=FIX.4.4|9=56|35=D|49=SENDER|56=TARGET|34=1|10=123|
8=FIX.4.4|9=56|35=D|49=SENDER|56=TARGET|34=1|10=123|
8=FIX.4.4|9=56|35=D|49=SENDER|56=TARGET|34=1|10=123|
8=FIX.4.4|9=56|35=D|49=SENDER|56=TARGET|34=1|10=123|
8=FIX.4.4|9=56|35=D|49=SENDER|56=TARGET|34=1|10=123|
8=FIX.4.4|9=56|35=D|49=SENDER|56=TARGET|34=1|10=123|
8=FIX.4.4|9=56|35=D|49=SENDER|56=TARGET|34=1|10=123|
8=FIX.4.4|9=56|35=D|49=SENDER|56=TARGET|34=1|10=123|
8=FIX.4.4|9=56|35=D|49=SENDER|56=TARGET|34=1|10=123|
8=FIX.4.4|9=56|35=D|49=SENDER|56=TARGET|34=1|10=123|
8=FIX.4.4|9=56|35=D|49=SENDER|56=TARGET|34=1|10=123|
8=FIX.4.4|9=56|35=D|49=SENDER|56=TARGET|34=1|10=123|
8=FIX.4.4|9=56|35=D|49=SENDER|56=TARGET|34=1|10=123|
8=FIX.4.4|9=56|35=D|49=SENDER|56=TARGET|34=1|10=123|
8=FIX.4.4|9=56|35=D|49=SENDER|56=TARGET|34=1|10=123|
8=FIX.4.4|9=56|35=D|49=SENDER|56=TARGET|34=1|10=123|
8=FIX.4.4|9=56|35=D|49=SENDER|56=TARGET|34=1|10=123|
8=FIX.4.4|9=56|35=D|49=SENDER|56=TARGET|34=1|10=123|
8=FIX.4.4|9=56|35=D|49=SENDER|56=TARGET|34=1|10=123|
8=FIX.4.4|9=56|35=D|49=SENDER|56=TARGET|34=1|10=123|
8=FIX.4.4|9=56|35=D|49=SENDER|56=TARGET|34=1|10=123|
8=FIX.4.4|9=56|35=D|49=SENDER|56=TARGET|34=1|10=123|
8=FIX.4.4|9=56|35=D|49=SENDER|56=TARGET|34=1|10=123|
8=FIX.4.4|9=56|35=D|49=SENDER|56=TARGET|34=1|10=123|
8=FIX.4.4|9=56|35=D|49=SENDER|56=TARGET|34=1|10=123|
8=FIX.4.4|9=56|35=D|49=SENDER|56=TARGET|34=1|10=123|
8=FIX.4.4|9=56|35=D|49=SENDER|56=TARGET|34=1|10=123|
8=FIX.4.4|9=56|35=D|49=SENDER|56=TARGET|34=1|10=123|
8=FIX.4.4|9=56|35=D|49=SENDER|56=TARGET|34=1|10=123|
8=FIX.4.4|9=56|35=D|49=SENDER|56=TARGET|34=1|10=123|
8=FIX.4.4|9=56|35=D|49=SENDER|56=TARGET|34=1|10=123|
8=FIX.4.4|9=56|35=D|49=SENDER|56=TARGET|34=1|10=123|
8=FIX.4.4|9=56|35=D|49=SENDER|56=TARGET|34=1|10=123|
8=FIX.4.4|9=56|35=D|49=SENDER|56=TARGET|34=1|10=123|
8=FIX.4.4|9=56|35=D|49=SENDER|56=TARGET|34=1|10=123|
8=FIX.4.4|9=56|35=D|49=SENDER|56=TARGET|34=1|10=123|
8=FIX.4.4|9=56|35=D|49=SENDER|56=TARGET|34=1|10=123|
8=FIX.4.4|9=56|35=D|49=SENDER|56=TARGET|34=1|10=123|
8=FIX.4.4|9=56|35=D|49=SENDER|56=TARGET|34=1|10=123|
8=FIX.4.4|9=56|35=D|49=SENDER|56=TARGET|34=1|10=123|
8=FIX.4.4|9=56|35=D|49=SENDER|56=TARGET|34=1|10=123|
8=FIX.4.4|9=56|35=D|49=SENDER|56=TARGET|34=1|10=123|
8=FIX.4.4|9=56|35=D|49=SENDER|56=TARGET|34=1|10=123|
8=FIX.4.4|9=56|35=D|49=SENDER|56=TARGET|34=1|10=123|
8=FIX.4.4|9=56|35=D|49=SENDER|56=TARGET|34=1|10=123|
8=FIX.4.4|9=56|35=D|49=SENDER|56=TARGET|34=1|10=123|
8=FIX.4.4|9=56|35=D|49=SENDER|56=TARGET|34=1|10=123|
8=FIX.4.4|9=56|35=D|49=SENDER|56=TARGET|34=1|10=123|
8=FIX.4.4|9=56|35=D|49=SENDER|56=TARGET|34=1|10=123|
8=FIX.4.4|9=56|35=D|49=SENDER|56=TARGET|34=1|10=123|
8=FIX.4.4|9=56|35=D|49=SENDER|56=TARGET|34=1|10=123|
8=FIX.4.4|9=56|35=D|49=SENDER|56=TARGET|34=1|10=123|
8=FIX.4.4|9=56|35=D|49=SENDER|56=TARGET|34=1|10=123|
8=FIX.4.4|9=56|35=D|49=SENDER|56=TARGET|34=1|10=123|
8=FIX.4.4|9=56|35=D|49=SENDER|56=TARGET|34=1|10=123|
8=FIX.4.4|9=56|35=D|49=SENDER|56=TARGET|34=1|10=123|
8=FIX.4.4|9=56|35=D|49=SENDER|56=TARGET|34=1|10=123|
8=FIX.4.4|9=56|35=D|49=SENDER|56=TARGET|34=1|10=123|
8=FIX.4.4|9=56|35=D|49=SENDER|56=TARGET|34=1|10=123|
8=FIX.4.4|9=56|35=D|49=SENDER|56=TARGET|34=1|10=123|
8=FIX.4.4|9=56|35=D|49=SENDER|56=TARGET|34=1|10=123|
8=FIX.4.4|9=56|35=D|49=SENDER|56=TARGET|34=1|10=123|
8=FIX.4.4|9=56|35=D|49=SENDER|56=TARGET|34=1|10=123|
8=FIX.4.4|9=56|35=D|49=SENDER|56=TARGET|34=1|10=123|
8=FIX.4.4|9=56|35=D|49=SENDER|56=TARGET|34=1|10=123|
8=FIX.4.4|9=56|35=D|49=SENDER|56=TARGET|34=1|10=123|
8=FIX.4.4|9=56|35=D|49=SENDER|56=TARGET|34=1|10=123|
8=FIX.4.4|9=56|35=D|49=SENDER|56=TARGET|34=1|10=123|
8=FIX.4.4|9=56|35=D|49=SENDER|56=TARGET|34=1|10=123|
8=FIX.4.4|9=56|35=D|49=SENDER|56=TARGET|34=1|10=123|
8=FIX.4.4|9=56|35=D|49=SENDER|56=TARGET|34=1|10=123|
8=FIX.4.4|9=56|35=D|49=SENDER|56=TARGET|34=1|10=123|
8=FIX.4.4|9=56|35=D|49=SENDER|56=TARGET|34=1|10=123|
8=FIX.4.4|9=56|35=D|49=SENDER|56=TARGET|34=1|10=123|
8=FIX.4.4|9=56|35=D|49=SENDER|56=TARGET|34=1|10=123|
8=FIX.4.4|9=56|35=D|49=SENDER|56=TARGET|34=1|10=123|
8=FIX.4.4|9=56|35=D|49=SENDER|56=TARGET|34=1|10=123|
8=FIX.4.4|9=56|35=D|49=SENDER|56=TARGET|34=1|10=123|
8=FIX.4.4|9=56|35=D|49=SENDER|56=TARGET|34=1|10=123|
8=FIX.4.4|9=56|35=D|49=SENDER|56=TARGET|34=1|10=123|
8=FIX.4.4|9=56|35=D|49=SENDER|56=TARGET|34=1|10=123|
8=FIX.4.4|9=56|35=D|49=SENDER|56=TARGET|34=1|10=123|
8=FIX.4.4|9=56|35=D|49=SENDER|56=TARGET|34=1|10=123|
8=FIX.4.4|9=56|35=D|49=SENDER|56=TARGET|34=1|10=123|
8=FIX.4.4|9=56|35=D|49=SENDER|56=TARGET|34=1|10=123|
8=FIX.4.4|9=56|35=D|49=SENDER|56=TARGET|34=1|10=123|
8=FIX.4.4|9=56|35=D|49=SENDER|56=TARGET|34=1|10=123|
8=FIX.4.4|9=56|35=D|49=SENDER|56=TARGET|34=1|10=123|
8=FIX.4.4|9=56|35=D|49=SENDER|56=TARGET|34=1|10=123|
8=FIX.4.4|9=56|35=D|49=SENDER|56=TARGET|34=1|10=123|
8=FIX.4.4|9=56|35=D|49=SENDER|56=TARGET|34=1|10=123|
8=FIX.4.4|9=56|35=D|49=SENDER|56=TARGET|34=1|10=123|
8=FIX.4.4|9=56|35=D|49=SENDER|56=TARGET|34=1|10=123|
8=FIX.4.4|9=56|35=D|49=SENDER|56=TARGET|34=1|10=123|
8=FIX.4.4|9=56|35=D|49=SENDER|56=TARGET|34=1|10=123|
8=FIX.4.4|9=56|35=D|49=SENDER|56=TARGET|34=1|10=123|
8=FIX.4.4|9=56|35=D|49=SENDER|56=TARGET|34=1|10=123|
8=FIX.4.4|9=56|35=D|49=SENDER|56=TARGET|34=1|10=123|
8=FIX.4.4|9=56|35=D|49=SENDER|56=TARGET|34=1|10=123|
8=FIX.4.4|9=56|35=D|49=SENDER|56=TARGET|34=1|10=123|
8=FIX.4.4|9=56|35=D|49=SENDER|56=TARGET|34=1|10=123|
8=FIX.4.4|9=56|35=D|49=SENDER|56=TARGET|34=1|10=123|
8=FIX.4.4|9=56|35=D|49=SENDER|56=TARGET|34=1|10=123|
8=FIX.4.4|9=56|35=D|49=SENDER|56=TARGET|34=1|10=123|
8=FIX.4.4|9=56|35=D|49=SENDER|56=TARGET|34=1|10=123|
8=FIX.4.4|9=56|35=D|49=SENDER|56=TARGET|34=1|10=123|
8=FIX.4.4|9=56|35=D|49=SENDER|56=TARGET|34=1|10=123|
8=FIX.4.4|9=56|35=D|49=SENDER|56=TARGET|34=1|10=123|
8=FIX.4.4|9=56|35=D|49=SENDER|56=TARGET|34=1|10=123|
8=FIX.4.4|9=56|35=D|49=SENDER|56=TARGET|34=1|10=123|
8=FIX.4.4|9=56|35=D|49=SENDER|56=TARGET|34=1|10=123|
8=FIX.4.4|9=56|35=D|49=SENDER|56=TARGET|34=1|10=123|
8=FIX.4.4|9=56|35=D|49=SENDER|56=TARGET|34=1|10=123|
8=FIX.4.4|9=56|35=D|49=SENDER|56=TARGET|34=1|10=123|
8=FIX.4.4|9=56|35=D|49=SENDER|56=TARGET|34=1|10=123|
8=FIX.4.4|9=56|35=D|49=SENDER|56=TARGET|34=1|10=123|
8=FIX.4.4|9=56|35=D|49=SENDER|56=TARGET|34=1|10=123|
8=FIX.4.4|9=56|35=D|49=SENDER|56=TARGET|34=1|10=123|
8=FIX.4.4|9=56|35=D|49=SENDER|56=TARGET|34=1|10=123|
8=FIX.4.4|9=56|35=D|49=SENDER|56=TARGET|34=1|10=123|
8=FIX.4.4|9=56|35=D|49=SENDER|56=TARGET|34=1|10=123|
8=FIX.4.4|9=56|35=D|49=SENDER|56=TARGET|34=1|10=123|
8=FIX.4.4|9=56|35=D|49=SENDER|56=TARGET|34=1|10=123|
8=FIX.4.4|9=56|35=D|49=SENDER|56=TARGET|34=1|10=123|
8=FIX.4.4|9=56|35=D|49=SENDER|56=TARGET|34=1|10=123|
8=FIX.4.4|9=56|35=D|49=SENDER|56=TARGET|34=1|10=123|
8=FIX.4.4|9=56|35=D|49=SENDER|56=TARGET|34=1|10=123|
8=FIX.4.4|9=56|35=D|49=SENDER|56=TARGET|34=1|10=123|
8=FIX.4.4|9=56|35=D|49=SENDER|56=TARGET|34=1|10=123|
8=FIX.4.4|9=56|35=D|49=SENDER|56=TARGET|34=1|10=123|
8=FIX.4.4|9=56|35=D|49=SENDER|56=TARGET|34=1|10=123|
8=FIX.4.4|9=56|35=D|49=SENDER|56=TARGET|34=1|10=123|
8=FIX.4.4|9=56|35=D|49=SENDER|56=TARGET|34=1|10=123|
8=FIX.4.4|9=56|35=D|49=SENDER|56=TARGET|34=1|10=123|
8=FIX.4.4|9=56|35=D|49=SENDER|56=TARGET|34=1|10=123|
8=FIX.4.4|9=56|35=D|49=SENDER|56=TARGET|34=1|10=123|
8=FIX.4.4|9=56|35=D|49=SENDER|56=TARGET|34=1|10=123|
8=FIX.4.4|9=56|35=D|49=SENDER|56=TARGET|34=1|10=123|
8=FIX.4.4|9=56|35=D|49=SENDER|56=TARGET|34=1|10=123|
8=FIX.4.4|9=56|35=D|49=SENDER|56=TARGET|34=1|10=123|
8=FIX.4.4|9=56|35=D|49=SENDER|56=TARGET|34=1|10=123|
8=FIX.4.4|9=56|35=D|49=SENDER|56=TARGET|34=1|10=123|
8=FIX.4.4|9=56|35=D|49=SENDER|56=TARGET|34=1|10=123|
8=FIX.4.4|9=56|35=D|49=SENDER|56=TARGET|34=1|10=123|
8=FIX.4.4|9=56|35=D|49=SENDER|56=TARGET|34=1|10=123|
8=FIX.4.4|9=56|35=D|49=SENDER|56=TARGET|34=1|10=123|
8=FIX.4.4|9=56|35=D|49=SENDER|56=TARGET|34=1|10=123|
8=FIX.4.4|9=56|35=D|49=SENDER|56=TARGET|34=1|10=123|
8=FIX.4.4|9=56|35=D|49=SENDER|56=TARGET|34=1|10=123|
8=FIX.4.4|9=56|35=D|49=SENDER|56=TARGET|34=1|10=123|
8=FIX.4.4|9=56|35=D|49=SENDER|56=TARGET|34=1|10=123|
8=FIX.4.4|9=56|35=D|49=SENDER|56=TARGET|34=1|10=123|
8=FIX.4.4|9=56|35=D|49=SENDER|56=TARGET|34=1|10=123|
8=FIX.4.4|9=56|35=D|49=SENDER|56=TARGET|34=1|10=123|
8=FIX.4.4|9=56|35=D|49=SENDER|56=TARGET|34=1|10=123|
8=FIX.4.4|9=56|35=D|49=SENDER|56=TARGET|34=1|10=123|
8=FIX.4.4|9=56|35=D|49=SENDER|56=TARGET|34=1|10=123|
8=FIX.4.4|9=56|35=D|49=SENDER|56=TARGET|34=1|10=123|
8=FIX.4.4|9=56|35=D|49=SENDER|56=TARGET|34=1|10=123|
8=FIX.4.4|9=56|35=D|49=SENDER|56=TARGET|34=1|10=123|
8=FIX.4.4|9=56|35=D|49=SENDER|56=TARGET|34=1|10=123|
8=FIX.4.4|9=56|35=D|49=SENDER|56=TARGET|34=1|10=123|
8=FIX.4.4|9=56|35=D|49=SENDER|56=TARGET|34=1|10=123|
8=FIX.4.4|9=56|35=D|49=SENDER|56=TARGET|34=1|10=123|
8=FIX.4.4|9=56|35=D|49=SENDER|56=TARGET|34=1|10=123|
8=FIX.4.4|9=56|35=D|49=SENDER|56=TARGET|34=1|10=123|
8=FIX.4.4|9=56|35=D|49=SENDER|56=TARGET|34=1|10=123|
8=FIX.4.4|9=56|35=D|49=SENDER|56=TARGET|34=1|10=123|
8=FIX.4.4|9=56|35=D|49=SENDER|56=TARGET|34=1|10=123|
8=FIX.4.4|9=56|35=D|49=SENDER|56=TARGET|34=1|10=123|
8=FIX.4.4|9=56|35=D|49=SENDER|56=TARGET|34=1|10=123|
8=FIX.4.4|9=56|35=D|49=SENDER|56=TARGET|34=1|10=123|
8=FIX.4.4|9=56|35=D|49=SENDER|56=TARGET|34=1|10=123|
8=FIX.4.4|9=56|35=D|49=SENDER|56=TARGET|34=1|10=123|
8=FIX.4.4|9=56|35=D|49=SENDER|56=TARGET|34=1|10=123|
8=FIX.4.4|9=56|35=D|49=SENDER|56=TARGET|34=1|10=123|
8=FIX.4.4|9=56|35=D|49=SENDER|56=TARGET|34=1|10=123|
8=FIX.4.4|9=56|35=D|49=SENDER|56=TARGET|34=1|10=123|
8=FIX.4.4|9=56|35=D|49=SENDER|56=TARGET|34=1|10=123|
8=FIX.4.4|9=56|35=D|49=SENDER|56=TARGET|34=1|10=123|
8=FIX.4.4|9=56|35=D|49=SENDER|56=TARGET|34=1|10=123|
8=FIX.4.4|9=56|35=D|49=SENDER|56=TARGET|34=1|10=123|
8=FIX.4.4|9=56|35=D|49=SENDER|56=TARGET|34=1|10=123|
8=FIX.4.4|9=56|35=D|49=SENDER|56=TARGET|34=1|10=123|
8=FIX.4.4|9=56|35=D|49=SENDER|56=TARGET|34=1|10=123|
8=FIX.4.4|9=56|35=D|49=SENDER|56=TARGET|34=1|10=123|
8=FIX.4.4|9=56|35=D|49=SENDER|56=TARGET|34=1|10=123|
8=FIX.4.4|9=56|35=D|49=SENDER|56=TARGET|34=1|10=123|
8=FIX.4.4|9=56|35=D|49=SENDER|56=TARGET|34=1|10=123|
8=FIX.4.4|9=56|35=D|49=SENDER|56=TARGET|34=1|10=123|
8=FIX.4.4|9=56|35=D|49=SENDER|56=TARGET|34=1|10=123|
8=FIX.4.4|9=56|35=D|49=SENDER|56=TARGET|34=1|10=123|
8=FIX.4.4|9=56|35=D|49=SENDER|56=TARGET|34=1|10=123|
8=FIX.4.4|9=56|35=D|49=SENDER|56=TARGET|34=1|10=123|
8=FIX.4.4|9=56|35=D|49=SENDER|56=TARGET|34=1|10=123|
8=FIX.4.4|9=56|35=D|49=SENDER|56=TARGET|34=1|10=123|
8=FIX.4.4|9=56|35=D|49=SENDER|56=TARGET|34=1|10=123|
8=FIX.4.4|9=56|35=D|49=SENDER|56=TARGET|34=1|10=123|
8=FIX.4.4|9=56|35=D|49=SENDER|56=TARGET|34=1|10=123|
8=FIX.4.4|9=56|35=D|49=SENDER|56=TARGET|34=1|10=123|
8=FIX.4.4|9=56|35=D|49=SENDER|56=TARGET|34=1|10=123|
8=FIX.4.4|9=56|35=D|49=SENDER|56=TARGET|34=1|10=123|
8=FIX.4.4|9=56|35=D|49=SENDER|56=TARGET|34=1|10=123|
8=FIX.4.4|9=56|35=D|49=SENDER|56=TARGET|34=1|10=123|
8=FIX.4.4|9=56|35=D|49=SENDER|56=TARGET|34=1|10=123|
8=FIX.4.4|9=56|35=D|49=SENDER|56=TARGET|34=1|10=123|
8=FIX.4.4|9=56|35=D|49=SENDER|56=TARGET|34=1|10=123|
8=FIX.4.4|9=56|35=D|49=SENDER|56=TARGET|34=1|10=123|
8=FIX.4.4|9=56|35=D|49=SENDER|56=TARGET|34=1|10=123|
8=FIX.4.4|9=56|35=D|49=SENDER|56=TARGET|34=1|10=123|
8=FIX.4.4|9=56|35=D|49=SENDER|56=TARGET|34=1|10=123|
8=FIX.4.4|9=56|35=D|49=SENDER|56=TARGET|34=1|10=123|
8=FIX.4.4|9=56|35=D|49=SENDER|56=TARGET|34=1|10=123|
8=FIX.4.4|9=56|35=D|49=SENDER|56=TARGET|34=1|10=123|
8=FIX.4.4|9=56|35=D|49=SENDER|56=TARGET|34=1|10=123|
8=FIX.4.4|9=56|35=D|49=SENDER|56=TARGET|34=1|10=123|
8=FIX.4.4|9=56|35=D|49=SENDER|56=TARGET|34=1|10=123|
8=FIX.4.4|9=56|35=D|49=SENDER|56=TARGET|34=1|10=123|
8=FIX.4.4|9=56|35=D|49=SENDER|56=TARGET|34=1|10=123|
8=FIX.4.4|9=56|35=D|49=SENDER|56=TARGET|34=1|10=123|
8=FIX.4.4|9=56|35=D|49=SENDER|56=TARGET|34=1|10=123|
8=FIX.4.4|9=56|35=D|49=SENDER|56=TARGET|34=1|10=123|
8=FIX.4.4|9=56|35=D|49=SENDER|56=TARGET|34=1|10=123|
8=FIX.4.4|9=56|35=D|49=SENDER|56=TARGET|34=1|10=123|
8=FIX.4.4|9=56|35=D|49=SENDER|56=TARGET|34=1|10=123|
8=FIX.4.4|9=56|35=D|49=SENDER|56=TARGET|34=1|10=123|
8=FIX.4.4|9=56|35=D|49=SENDER|56=TARGET|34=1|10=123|
8=FIX.4.4|9=56|35=D|49=SENDER|56=TARGET|34=1|10=123|
8=FIX.4.4|9=56|35=D|49=SENDER|56=TARGET|34=1|10=123|
8=FIX.4.4|9=56|35=D|49=SENDER|56=TARGET|34=1|10=123|
8=FIX.4.4|9=56|35=D|49=SENDER|56=TARGET|34=1|10=123|
8=FIX.4.4|9=56|35=D|49=SENDER|56=TARGET|34=1|10=123|
8=FIX.4.4|9=56|35=D|49=SENDER|56=TARGET|34=1|10=123|
8=FIX.4.4|9=56|35=D|49=SENDER|56=TARGET|34=1|10=123|
8=FIX.4.4|9=56|35=D|49=SENDER|56=TARGET|34=1|10=123|
8=FIX.4.4|9=56|35=D|49=SENDER|56=TARGET|34=1|10=123|
8=FIX.4.4|9=56|35=D|49=SENDER|56=TARGET|34=1|10=123|
8=FIX.4.4|9=56|35=D|49=SENDER|56=TARGET|34=1|10=123|
8=FIX.4.4|9=56|35=D|49=SENDER|56=TARGET|34=1|10=123|
8=FIX.4.4|9=56|35=D|49=SENDER|56=TARGET|34=1|10=123|
8=FIX.4.4|9=56|35=D|49=SENDER|56=TARGET|34=1|10=123|
8=FIX.4.4|9=56|35=D|49=SENDER|56=TARGET|34=1|10=123|
8=FIX.4.4|9=56|35=D|49=SENDER|56=TARGET|34=1|10=123|
8=FIX.4.4|9=56|35=D|49=SENDER|56=TARGET|34=1|10=123|
8=FIX.4.4|9=56|35=D|49=SENDER|56=TARGET|34=1|10=123|
8=FIX.4.4|9=56|35=D|49=SENDER|56=TARGET|34=1|10=123|
8=FIX.4.4|9=56|35=D|49=SENDER|56=TARGET|34=1|10=123|
8=FIX.4.4|9=56|35=D|49=SENDER|56=TARGET|34=1|10=123|
8=FIX.4.4|9=56|35=D|49=SENDER|56=TARGET|34=1|10=123|
8=FIX.4.4|9=56|35=D|49=SENDER|56=TARGET|34=1|10=123|
8=FIX.4.4|9=56|35=D|49=SENDER|56=TARGET|34=1|10=123|
8=FIX.4.4|9=56|35=D|49=SENDER|56=TARGET|34=1|10=123|
8=FIX.4.4|9=56|35=D|49=SENDER|56=TARGET|34=1|10=123|
8=FIX.4.4|9=56|35=D|49=SENDER|56=TARGET|34=1|10=123|
8=FIX.4.4|9=56|35=D|49=SENDER|56=TARGET|34=1|10=123|
8=FIX.4.4|9=56|35=D|49=SENDER|56=TARGET|34=1|10=123|
8=FIX.4.4|9=56|35=D|49=SENDER|56=TARGET|34=1|10=123|
8=FIX.4.4|9=56|35=D|49=SENDER|56=TARGET|34=1|10=123|
8=FIX.4.4|9=56|35=D|49=SENDER|56=TARGET|34=1|10=123|
8=FIX.4.4|9=56|35=D|49=SENDER|56=TARGET|34=1|10=123|
8=FIX.4.4|9=56|35=D|49=SENDER|56=TARGET|34=1|10=123|
8=FIX.4.4|9=56|35=D|49=SENDER|56=TARGET|34=1|10=123|
8=FIX.4.4|9=56|35=D|49=SENDER|56=TARGET|34=1|10=123|
8=FIX.4.4|9=56|35=D|49=SENDER|56=TARGET|34=1|10=123|
8=FIX.4.4|9=56|35=D|49=SENDER|56=TARGET|34=1|10=123|
8=FIX.4.4|9=56|35=D|49=SENDER|56=TARGET|34=1|10=123|
8=FIX.4.4|9=56|35=D|49=SENDER|56=TARGET|34=1|10=123|
8=FIX.4.4|9=56|35=D|49=SENDER|56=TARGET|34=1|10=123|
8=FIX.4.4|9=56|35=D|49=SENDER|56=TARGET|34=1|10=123|
8=FIX.4.4|9=56|35=D|49=SENDER|56=TARGET|34=1|10=123|
8=FIX.4.4|9=56|35=D|49=SENDER|56=TARGET|34=1|10=123|
8=FIX.4.4|9=56|35=D|49=SENDER|56=TARGET|34=1|10=123|
8=FIX.4.4|9=56|35=D|49=SENDER|56=TARGET|34=1|10=123|
8=FIX.4.4|9=56|35=D|49=SENDER|56=TARGET|34=1|10=123|
8=FIX.4.4|9=56|35=D|49=SENDER|56=TARGET|34=1|10=123|
8=FIX.4.4|9=56|35=D|49=SENDER|56=TARGET|34=1|10=123|
8=FIX.4.4|9=56|35=D|49=SENDER|56=TARGET|34=1|10=123|
8=FIX.4.4|9=56|35=D|49=SENDER|56=TARGET|34=1|10=123|
8=FIX.4.4|9=56|35=D|49=SENDER|56=TARGET|34=1|10=123|
8=FIX.4.4|9=56|35=D|49=SENDER|56=TARGET|34=1|10=123|
8=FIX.4.4|9=56|35=D|49=SENDER|56=TARGET|34=1|10=123|
8=FIX.4.4|9=56|35=D|49=SENDER|56=TARGET|34=1|10=123|
8=FIX.4.4|9=56|35=D|49=SENDER|56=TARGET|34=1|10=123|
8=FIX.4.4|9=56|35=D|49=SENDER|56=TARGET|34=1|10=123|
8=FIX.4.4|9=56|35=D|49=SENDER|56=TARGET|34=1|10=123|
8=FIX.4.4|9=56|35=D|49=SENDER|56=TARGET|34=1|10=123|
8=FIX.4.4|9=56|35=D|49=SENDER|56=TARGET|34=1|10=123|
8=FIX.4.4|9=56|35=D|49=SENDER|56=TARGET|34=1|10=123|
8=FIX.4.4|9=56|35=D|49=SENDER|56=TARGET|34=1|10=123|
8=FIX.4.4|9=56|35=D|49=SENDER|56=TARGET|34=1|10=123|
8=FIX.4.4|9=56|35=D|49=SENDER|56=TARGET|34=1|10=123|
8=FIX.4.4|9=56|35=D|49=SENDER|56=TARGET|34=1|10=123|
8=FIX.4.4|9=56|35=D|49=SENDER|56=TARGET|34=1|10=123|
8=FIX.4.4|9=56|35=D|49=SENDER|56=TARGET|34=1|10=123|
8=FIX.4.4|9=56|35=D|49=SENDER|56=TARGET|34=1|10=123|
8=FIX.4.4|9=56|35=D|49=SENDER|56=TARGET|34=1|10=123|
8=FIX.4.4|9=56|35=D|49=SENDER|56=TARGET|34=1|10=123|
8=FIX.4.4|9=56|35=D|49=SENDER|56=TARGET|34=1|10=123|
8=FIX.4.4|9=56|35=D|49=SENDER|56=TARGET|34=1|10=123|
8=FIX.4.4|9=56|35=D|49=SENDER|56=TARGET|34=1|10=123|
8=FIX.4.4|9=56|35=D|49=SENDER|56=TARGET|34=1|10=123|
8=FIX.4.4|9=56|35=D|49=SENDER|56=TARGET|34=1|10=123|
8=FIX.4.4|9=56|35=D|49=SENDER|56=TARGET|34=1|10=123|
8=FIX.4.4|9=56|35=D|49=SENDER|56=TARGET|34=1|10=123|
8=FIX.4.4|9=56|35=D|49=SENDER|56=TARGET|34=1|10=123|
8=FIX.4.4|9=56|35=D|49=SENDER|56=TARGET|34=1|10=123|
8=FIX.4.4|9=56|35=D|49=SENDER|56=TARGET|34=1|10=123|
8=FIX.4.4|9=56|35=D|49=SENDER|56=TARGET|34=1|10=123|
8=FIX.4.4|9=56|35=D|49=SENDER|56=TARGET|34=1|10=123|
8=FIX.4.4|9=56|35=D|49=SENDER|56=TARGET|34=1|10=123|
8=FIX.4.4|9=56|35=D|49=SENDER|56=TARGET|34=1|10=123|
8=FIX.4.4|9=56|35=D|49=SENDER|56=TARGET|34=1|10=123|
8=FIX.4.4|9=56|35=D|49=SENDER|56=TARGET|34=1|10=123|
8=FIX.4.4|9=56|35=D|49=SENDER|56=TARGET|34=1|10=123|
8=FIX.4.4|9=56|35=D|49=SENDER|56=TARGET|34=1|10=123|
8=FIX.4.4|9=56|35=D|49=SENDER|56=TARGET|34=1|10=123|
8=FIX.4.4|9=56|35=D|49=SENDER|56=TARGET|34=1|10=123|
8=FIX.4.4|9=56|35=D|49=SENDER|56=TARGET|34=1|10=123|
8=FIX.4.4|9=56|35=D|49=SENDER|56=TARGET|34=1|10=123|
8=FIX.4.4|9=56|35=D|49=SENDER|56=TARGET|34=1|10=123|
8=FIX.4.4|9=56|35=D|49=SENDER|56=TARGET|34=1|10=123|
8=FIX.4.4|9=56|35=D|49=SENDER|56=TARGET|34=1|10=123|
8=FIX.4.4|9=56|35=D|49=SENDER|56=TARGET|34=1|10=123|
8=FIX.4.4|9=56|35=D|49=SENDER|56=TARGET|34=1|10=123|
8=FIX.4.4|9=56|35=D|49=SENDER|56=TARGET|34=1|10=123|
8=FIX.4.4|9=56|35=D|49=SENDER|56=TARGET|34=1|10=123|
8=FIX.4.4|9=56|35=D|49=SENDER|56=TARGET|34=1|10=123|
8=FIX.4.4|9=56|35=D|49=SENDER|56=TARGET|34=1|10=123|
8=FIX.4.4|9=56|35=D|49=SENDER|56=TARGET|34=1|10=123|
8=FIX.4.4|9=56|35=D|49=SENDER|56=TARGET|34=1|10=123|
8=FIX.4.4|9=56|35=D|49=SENDER|56=TARGET|34=1|10=123|
8=FIX.4.4|9=56|35=D|49=SENDER|56=TARGET|34=1|10=123|
8=FIX.4.4|9=56|35=D|49=SENDER|56=TARGET|34=1|10=123|
8=FIX.4.4|9=56|35=D|49=SENDER|56=TARGET|34=1|10=123|
8=FIX.4.4|9=56|35=D|49=SENDER|56=TARGET|34=1|10=123|
8=FIX.4.4|9=56|35=D|49=SENDER|56=TARGET|34=1|10=123|
8=FIX.4.4|9=56|35=D|49=SENDER|56=TARGET|34=1|10=123|
8=FIX.4.4|9=56|35=D|49=SENDER|56=TARGET|34=1|10=123|
8=FIX.4.4|9=56|35=D|49=SENDER|56=TARGET|34=1|10=123|
8=FIX.4.4|9=56|35=D|49=SENDER|56=TARGET|34=1|10=123|
8=FIX.4.4|9=56|35=D|49=SENDER|56=TARGET|34=1|10=123|
8=FIX.4.4|9=56|35=D|49=SENDER|56=TARGET|34=1|10=123|
8=FIX.4.4|9=56|35=D|49=SENDER|56=TARGET|34=1|10=123|
8=FIX.4.4|9=56|35=D|49=SENDER|56=TARGET|34=1|10=123|
8=FIX.4.4|9=56|35=D|49=SENDER|56=TARGET|34=1|10=123|
8=FIX.4.4|9=56|35=D|49=SENDER|56=TARGET|34=1|10=123|
8=FIX.4.4|9=56|35=D|49=SENDER|56=TARGET|34=1|10=123|
8=FIX.4.4|9=56|35=D|49=SENDER|56=TARGET|34=1|10=123|
8=FIX.4.4|9=56|35=D|49=SENDER|56=TARGET|34=1|10=123|
8=FIX.4.4|9=56|35=D|49=SENDER|56=TARGET|34=1|10=123|
8=FIX.4.4|9=56|35=D|49=SENDER|56=TARGET|34=1|10=123|
8=FIX.4.4|9=56|35=D|49=SENDER|56=TARGET|34=1|10=123|
8=FIX.4.4|9=56|35=D|49=SENDER|56=TARGET|34=1|10=123|
8=FIX.4.4|9=56|35=D|49=SENDER|56=TARGET|34=1|10=123|
8=FIX.4.4|9=56|35=D|49=SENDER|56=TARGET|34=1|10=123|
8=FIX.4.4|9=56|35=D|49=SENDER|56=TARGET|34=1|10=123|
8=FIX.4.4|9=56|35=D|49=SENDER|56=TARGET|34=1|10=123|
8=FIX.4.4|9=56|35=D|49=SENDER|56=TARGET|34=1|10=123|
8=FIX.4.4|9=56|35=D|49=SENDER|56=TARGET|34=1|10=123|
8=FIX.4.4|9=56|35=D|49=SENDER|56=TARGET|34=1|10=123|
8=FIX.4.4|9=56|35=D|49=SENDER|56=TARGET|34=1|10=123|
8=FIX.4.4|9=56|35=D|49=SENDER|56=TARGET|34=1|10=123|
8=FIX.4.4|9=56|35=D|49=SENDER|56=TARGET|34=1|10=123|
8=FIX.4.4|9=56|35=D|49=SENDER|56=TARGET|34=1|10=123|
8=FIX.4.4|9=56|35=D|49=SENDER|56=TARGET|34=1|10=123|
8=FIX.4.4|9=56|35=D|49=SENDER|56=TARGET|34=1|10=123|
8=FIX.4.4|9=56|35=D|49=SENDER|56=TARGET|34=1|10=123|
8=FIX.4.4|9=56|35=D|49=SENDER|56=TARGET|34=1|10=123|
8=FIX.4.4|9=56|35=D|49=SENDER|56=TARGET|34=1|10=123|
8=FIX.4.4|9=56|35=D|49=SENDER|56=TARGET|34=1|10=123|
8=FIX.4.4|9=56|35=D|49=SENDER|56=TARGET|34=1|10=123|
8=FIX.4.4|9=56|35=D|49=SENDER|56=TARGET|34=1|10=123|
8=FIX.4.4|9=56|35=D|49=SENDER|56=TARGET|34=1|10=123|
8=FIX.4.4|9=56|35=D|49=SENDER|56=TARGET|34=1|10=123|
8=FIX.4.4|9=56|35=D|49=SENDER|56=TARGET|34=1|10=123|
8=FIX.4.4|9=56|35=D|49=SENDER|56=TARGET|34=1|10=123|
8=FIX.4.4|9=56|35=D|49=SENDER|56=TARGET|34=1|10=123|
8=FIX.4.4|9=56|35=D|49=SENDER|56=TARGET|34=1|10=123|
8=FIX.4.4|9=56|35=D|49=SENDER|56=TARGET|34=1|10=123|
8=FIX.4.4|9=56|35=D|49=SENDER|56=TARGET|34=1|10=123|
8=FIX.4.4|9=56|35=D|49=SENDER|56=TARGET|34=1|10=123|
8=FIX.4.4|9=56|35=D|49=SENDER|56=TARGET|34=1|10=123|
8=FIX.4.4|9=56|35=D|49=SENDER|56=TARGET|34=1|10=123|
8=FIX.4.4|9=56|35=D|49=SENDER|56=TARGET|34=1|10=123|
8=FIX.4.4|9=56|35=D|49=SENDER|56=TARGET|34=1|10=123|
8=FIX.4.4|9=56|35=D|49=SENDER|56=TARGET|34=1|10=123|
8=FIX.4.4|9=56|35=D|49=SENDER|56=TARGET|34=1|10=123|
8=FIX.4.4|9=56|35=D|49=SENDER|56=TARGET|34=1|10=123|
8=FIX.4.4|9=56|35=D|49=SENDER|56=TARGET|34=1|10=123|
8=FIX.4.4|9=56|35=D|49=SENDER|56=TARGET|34=1|10=123|
8=FIX.4.4|9=56|35=D|49=SENDER|56=TARGET|34=1|10=123|
8=FIX.4.4|9=56|35=D|49=SENDER|56=TARGET|34=1|10=123|
8=FIX.4.4|9=56|35=D|49=SENDER|56=TARGET|34=1|10=123|
8=FIX.4.4|9=56|35=D|49=SENDER|56=TARGET|34=1|10=123|
8=FIX.4.4|9=56|35=D|49=SENDER|56=TARGET|34=1|10=123|
8=FIX.4.4|9=56|35=D|49=SENDER|56=TARGET|34=1|10=123|
8=FIX.4.4|9=56|35=D|49=SENDER|56=TARGET|34=1|10=123|
8=FIX.4.4|9=56|35=D|49=SENDER|56=TARGET|34=1|10=123|
8=FIX.4.4|9=56|35=D|49=SENDER|56=TARGET|34=1|10=123|
8=FIX.4.4|9=56|35=D|49=SENDER|56=TARGET|34=1|10=123|
8=FIX.4.4|9=56|35=D|49=SENDER|56=TARGET|34=1|10=123|
8=FIX.4.4|9=56|35=D|49=SENDER|56=TARGET|34=1|10=123|
8=FIX.4.4|9=56|35=D|49=SENDER|56=TARGET|34=1|10=123|
8=FIX.4.4|9=56|35=D|49=SENDER|56=TARGET|34=1|10=123|
8=FIX.4.4|9=56|35=D|49=SENDER|56=TARGET|34=1|10=123|
8=FIX.4.4|9=56|35=D|49=SENDER|56=TARGET|34=1|10=123|
8=FIX.4.4|9=56|35=D|49=SENDER|56=TARGET|34=1|10=123|
8=FIX.4.4|9=56|35=D|49=SENDER|56=TARGET|34=1|10=123|
8=FIX.4.4|9=56|35=D|49=SENDER|56=TARGET|34=1|10=123|
8=FIX.4.4|9=56|35=D|49=SENDER|56=TARGET|34=1|10=123|
8=FIX.4.4|9=56|35=D|49=SENDER|56=TARGET|34=1|10=123|
8=FIX.4.4|9=56|35=D|49=SENDER|56=TARGET|34=1|10=123|
8=FIX.4.4|9=56|35=D|49=SENDER|56=TARGET|34=1|10=123|
8=FIX.4.4|9=56|35=D|49=SENDER|56=TARGET|34=1|10=123|
8=FIX.4.4|9=56|35=D|49=SENDER|56=TARGET|34=1|10=123|
8=FIX.4.4|9=56|35=D|49=SENDER|56=TARGET|34=1|10=123|
8=FIX.4.4|9=56|35=D|49=SENDER|56=TARGET|34=1|10=123|
8=FIX.4.4|9=56|35=D|49=SENDER|56=TARGET|34=1|10=123|
8=FIX.4.4|9=56|35=D|49=SENDER|56=TARGET|34=1|10=123|
8=FIX.4.4|9=56|35=D|49=SENDER|56=TARGET|34=1|10=123|
8=FIX.4.4|9=56|35=D|49=SENDER|56=TARGET|34=1|10=123|
8=FIX.4.4|9=56|35=D|49=SENDER|56=TARGET|34=1|10=123|
8=FIX.4.4|9=56|35=D|49=SENDER|56=TARGET|34=1|10=123|
8=FIX.4.4|9=56|35=D|49=SENDER|56=TARGET|34=1|10=123|
8=FIX.4.4|9=56|35=D|49=SENDER|56=TARGET|34=1|10=123|
8=FIX.4.4|9=56|35=D|49=SENDER|56=TARGET|34=1|10=123|
8=FIX.4.4|9=56|35=D|49=SENDER|56=TARGET|34=1|10=123|
8=FIX.4.4|9=56|35=D|49=SENDER|56=TARGET|34=1|10=123|
8=FIX.4.4|9=56|35=D|49=SENDER|56=TARGET|34=1|10=123|
8=FIX.4.4|9=56|35=D|49=SENDER|56=TARGET|34=1|10=123|
8=FIX.4.4|9=56|35=D|49=SENDER|56=TARGET|34=1|10=123|
8=FIX.4.4|9=56|35=D|49=SENDER|56=TARGET|34=1|10=123|
8=FIX.4.4|9=56|35=D|49=SENDER|56=TARGET|34=1|10=123|
8=FIX.4.4|9=56|35=D|49=SENDER|56=TARGET|34=1|10=123|
8=FIX.4.4|9=56|35=D|49=SENDER|56=TARGET|34=1|10=123|
8=FIX.4.4|9=56|35=D|49=SENDER|56=TARGET|34=1|10=123|
8=FIX.4.4|9=56|35=D|49=SENDER|56=TARGET|34=1|10=123|
8=FIX.4.4|9=56|35=D|49=SENDER|56=TARGET|34=1|10=123|
8=FIX.4.4|9=56|35=D|49=SENDER|56=TARGET|34=1|10=123|
8=FIX.4.4|9=56|35=D|49=SENDER|56=TARGET|34=1|10=123|
8=FIX.4.4|9=56|35=D|49=SENDER|56=TARGET|34=1|10=123|
8=FIX.4.4|9=56|35=D|49=SENDER|56=TARGET|34=1|10=123|
8=FIX.4.4|9=56|35=D|49=SENDER|56=TARGET|34=1|10=123|
8=FIX.4.4|9=56|35=D|49=SENDER|56=TARGET|34=1|10=123|
8=FIX.4.4|9=56|35=D|49=SENDER|56=TARGET|34=1|10=123|
8=FIX.4.4|9=56|35=D|49=SENDER|56=TARGET|34=1|10=123|
8=FIX.4.4|9=56|35=D|49=SENDER|56=TARGET|34=1|10=123|
8=FIX.4.4|9=56|35=D|49=SENDER|56=TARGET|34=1|10=123|
8=FIX.4.4|9=56|35=D|49=SENDER|56=TARGET|34=1|10=123|
8=FIX.4.4|9=56|35=D|49=SENDER|56=TARGET|34=1|10=123|
8=FIX.4.4|9=56|35=D|49=SENDER|56=TARGET|34=1|10=123|
8=FIX.4.4|9=56|35=D|49=SENDER|56=TARGET|34=1|10=123|
8=FIX.4.4|9=56|35=D|49=SENDER|56=TARGET|34=1|10=123|
8=FIX.4.4|9=56|35=D|49=SENDER|56=TARGET|34=1|10=123|
8=FIX.4.4|9=56|35=D|49=SENDER|56=TARGET|34=1|10=123|
8=FIX.4.4|9=56|35=D|49=SENDER|56=TARGET|34=1|10=123|
8=FIX.4.4|9=56|35=D|49=SENDER|56=TARGET|34=1|10=123|
8=FIX.4.4|9=56|35=D|49=SENDER|56=TARGET|34=1|10=123|
8=FIX.4.4|9=56|35=D|49=SENDER|56=TARGET|34=1|10=123|
8=FIX.4.4|9=56|35=D|49=SENDER|56=TARGET|34=1|10=123|
8=FIX.4.4|9=56|35=D|49=SENDER|56=TARGET|34=1|10=123|
8=FIX.4.4|9=56|35=D|49=SENDER|56=TARGET|34=1|10=123|
8=FIX.4.4|9=56|35=D|49=SENDER|56=TARGET|34=1|10=123|
8=FIX.4.4|9=56|35=D|49=SENDER|56=TARGET|34=1|10=123|
8=FIX.4.4|9=56|35=D|49=SENDER|56=TARGET|34=1|10=123|
8=FIX.4.4|9=56|35=D|49=SENDER|56=TARGET|34=1|10=123|
8=FIX.4.4|9=56|35=D|49=SENDER|56=TARGET|34=1|10=123|
8=FIX.4.4|9=56|35=D|49=SENDER|56=TARGET|34=1|10=123|
8=FIX.4.4|9=56|35=D|49=SENDER|56=TARGET|34=1|10=123|
8=FIX.4.4|9=56|35=D|49=SENDER|56=TARGET|34=1|10=123|
8=FIX.4.4|9=56|35=D|49=SENDER|56=TARGET|34=1|10=123|
8=FIX.4.4|9=56|35=D|49=SENDER|56=TARGET|34=1|10=123|
8=FIX.4.4|9=56|35=D|49=SENDER|56=TARGET|34=1|10=123|
8=FIX.4.4|9=56|35=D|49=SENDER|56=TARGET|34=1|10=123|
8=FIX.4.4|9=56|35=D|49=SENDER|56=TARGET|34=1|10=123|
8=FIX.4.4|9=56|35=D|49=SENDER|56=TARGET|34=1|10=123|
8=FIX.4.4|9=56|35=D|49=SENDER|56=TARGET|34=1|10=123|
8=FIX.4.4|9=56|35=D|49=SENDER|56=TARGET|34=1|10=123|
8=FIX.4.4|9=56|35=D|49=SENDER|56=TARGET|34=1|10=123|
8=FIX.4.4|9=56|35=D|49=SENDER|56=TARGET|34=1|10=123|
8=FIX.4.4|9=56|35=D|49=SENDER|56=TARGET|34=1|10=123|
8=FIX.4.4|9=56|35=D|49=SENDER|56=TARGET|34=1|10=123|
8=FIX.4.4|9=56|35=D|49=SENDER|56=TARGET|34=1|10=123|
8=FIX.4.4|9=56|35=D|49=SENDER|56=TARGET|34=1|10=123|
8=FIX.4.4|9=56|35=D|49=SENDER|56=TARGET|34=1|10=123|
8=FIX.4.4|9=56|35=D|49=SENDER|56=TARGET|34=1|10=123|
8=FIX.4.4|9=56|35=D|49=SENDER|56=TARGET|34=1|10=123|
8=FIX.4.4|9=56|35=D|49=SENDER|56=TARGET|34=1|10=123|
8=FIX.4.4|9=56|35=D|49=SENDER|56=TARGET|34=1|10=123|
8=FIX.4.4|9=56|35=D|49=SENDER|56=TARGET|34=1|10=123|
8=FIX.4.4|9=56|35=D|49=SENDER|56=TARGET|34=1|10=123|
8=FIX.4.4|9=56|35=D|49=SENDER|56=TARGET|34=1|10=123|